:100000000C9413030C9430030C9430030C943003C1
:100010000C9430030C9430030C9430030C94300394
:100020000C9430030C9430030C9430030C94300384
:100030000C9430030C9430030C94AF1E0C943003DA
:100040000C94CB1D0C94011E0C943B1E0C94751E3D
:100050000C94E31E0C9430030C9430030C94300386
:100060000C9430030C9430030C9430030C94300344
:100070000C9496170C9454170C9430030C94300382
:100080000C9430030C9430030C9430030C94300324
:100090000C9430030C9430030C9430030C94300314
:1000A0000C9430030C9430030C9430030C94300304
:1000B0000C9430030C9430030C9430030C943003F4
:1000C0000C9430030C9430030C9430030C943003E4
:1000D0000C9430030C9430030C9430030C943003D4
:1000E0000C9430030C9430030C9430030C943003C4
:1000F0000C9430030C9430030C9430030C943003B4
:100100000C9430030C9430030C9430030C943003A3
:100110000C9430030C9430030C9430030C94300393
:100120000C9430030C9430030C9430030C94300383
:100130000C9430030C9430030C9430030C94300373
:100140000C9430030C9430030C9430030C94300363
:100150000C9430030C9430030C9430030C94300353
:100160000C9430030C9430030C9430030C94300343
:100170000C9430030C943003570D660F660F660F16
:10018000660F660F660F660F660F660F7A0D960D87
:10019000B20DCE0D660F660F660F660F660F660F07
:1001A0008A0DA40DC00DDC0D660F660F660F660F7D
:1001B000660F6E0DEA0D660F660F660F660F660F0F
:1001C000660F660F660FF70D020E660F660F660F5D
:1001D000660F660F660F660F660F660F120E660FCC
:1001E000660F660F660F660F660F660F660F660F67
:1001F000660F660F660F660F660F660F660F660F57
:10020000660F2E0E560E6C0EA40EBA0ED00EE60E13
:10021000FC0E270F380F490F580F750F9808611102
:1002200098089808980898089808980898089808CE
:100230009411DD112C1278129808980898089808E3
:1002400098089808B711061252129E12980898083A
:100250009808980898089808C412EA12F6129808A4
:10026000980898089808980898089808980898088E
:10027000980898089808980898089808980898087E
:1002800021139808980898089808980898089808DA
:10029000980898089808980898089808980898085E
:1002A0009808980898086013A313D7130A143D14EC
:1002B0007014A414D814171526154F157815643228
:1002C0000D0D000000000000000000000000000014
:1002D00000000000000000000000000000000031ED
:1002E0003A20C501000052504D2020C601002532A1
:1002F0003A20C502000052504D2020C6020025338E
:100300003A20C503000052504D2020C6030025C0EE
:1003100001000020F24320C004000020F24320C06E
:1003200002000020F24320C005000020F24320C05C
:1003300003000020F24320C006000020F2432020EA
:1003400020202020202020202020202020202020AD
:10035000202020202020202020202020202020209D
:10036000202020202020202020202020202020208D
:10037000202020202020202020202020202020207D
:10038000202020202020202020202020202020206D
:10039000202020202020202020202020202020205D
:1003A000202020202020202020202020202020204D
:1003B000202020202020202020202020202020203D
:1003C000202020202020202020202020202020202D
:1003D0002020202020202020202020202020A900B4
:1003E0000000000000646464A0A0A0A0A0A0A0A0E1
:1003F000FAFAFAFAFAFAFAFAFAFAFAFAFAFAFAFA5D
:10040000FAFAFAFAFAFAFAFAFFFFFFFFFFFFFFFF24
:10041000FFFFFFFFFFFFFFFFFFFFFFFFFFFFFFFFEC
:1004200064210600000AC7C7C7C7C7C7C7C7C7C771
:10043000C7C7C7C7C7C7C7C7C7C7C7C7C7C7C7C74C
:10044000C7C7C7C7C7C7C7C7C7C7C7C7C7C7C7C53E
:10045000C3C1BFBDBBB9B7B6B4B3B1AFAEACABAA45
:10046000A8A7A6A4A3A2A19F9E9D9C9B9A9998969B
:10047000959493929191908F8E8D8C8B8A89898897
:10048000878685858483828181807F7F7E7D7C7C59
:100490007B7A7A79787877777675757473737272F8
:1004A0007171706F6F6E6E6D6D6C6C6B6B6A6A697B
:1004B00069686867676666656564646363626262EB
:1004C000616160605F5F5E5E5E5D5D5C5C5C5B5B4E
:1004D0005A5A5A59595858585757575656555555A4
:1004E0005454545353535252525151515050504FEF
:1004F0004F4F4E4E4E4D4D4D4C4C4C4B4B4B4A4A34
:100500004A4A494949484848474747474646464571
:1005100045454544444444434343424242424141A9
:100520004141404040403F3F3F3F3E3E3E3E3D3DDB
:100530003D3D3C3C3C3C3B3B3B3B3A3A3A3A39390B
:100540003939393838383837373737363636363636
:10055000353535353534343434333333333332325F
:10056000323232313131313130303030302F2F2F83
:100570002F2F2E2E2E2E2E2D2D2D2D2D2C2C2C2CA6
:100580002C2B2B2B2B2B2B2A2A2A2A2A29292929C7
:1005900029292828282828272727272727262626E5
:1005A0002626262525252525242424242424232302
:1005B000232323232222222222222121212121211D
:1005C000212020202020201F1F1F1F1F1F1E1E1E36
:1005D0001E1E1E1E1D1D1D1D1D1D1C1C1C1C1C1C4D
:1005E0001C1B1B1B1B1B1B1A1A1A1A1A1A1A191965
:1005F000191919191918181818181818171717177A
:10060000171717161616161616161515151515158D
:1006100015141414141414141413131313131313A0
:1006200012121212121211241FBECFEFDFE2DEBF30
:10063000CDBF10E2A0E0B0E2ECE0F1E402C0059032
:100640000D92A436B107D9F722E2A4E6B0E201C0C8
:100650001D92A030B207E1F70E94AE060C948420F0
:100660000C9400000E94A71608950E94DF160895BA
:100670002F923F924F925F927F928F929F92AF9272
:10068000BF92CF92DF92EF92FF920F931F93CF937F
:10069000DF93CDB7DEB72A97CDBFDEBF5B012A015E
:1006A0001901E986FA86F82E84E08F1518F468940B
:1006B000FF24F2F880E00E94D21620E3F29E702C14
:1006C00011248F2D90E00196289F7001299FF00C36
:1006D0001124872D90E08E159F050CF0F9C1272D70
:1006E00030E0F501E20FF31F8081833C09F4CDC0B7
:1006F00048F4813C09F454C008F079C0803C09F00A
:10070000DEC109C0853C09F437C108F401C1863C4B
:1007100009F0D5C191C1F501E20FF31F818181502C
:10072000883108F080E0F201E80FF11D9080ECEDD7
:100730009E120DC08EE60E94D9168EE20E94D91636
:1007400083E60E94D9168EE20E94D91626C04AE09E
:1007500050E0BE016F5F7F4F892D869590E00E942B
:10076000F01FF3E1F91538F080E20E94D916898173
:100770000E94D91606C089810E94D9168A810E94DA
:10078000D9168CE20E94D91690FE04C085E30E941F
:10079000D91603C080E30E94D91683E0780E91C178
:1007A000F501E20FF31F81818150833008F080E072
:1007B000F101E80FF11D90804AE050E0BE016F5F4B
:1007C0007F4F892D90E00E94F01FE9E0E91538F095
:1007D00080E30E94D91689810E94D91606C08981BA
:1007E0000E94D9168A810E94D91673946AC1F801B1
:1007F000808091804AE050E0BE016F5F7F4FC4016E
:100800000E94F01FFAE08F16910468F480E20E94C3
:10081000D91680E20E94D91680E20E94D9168981F9
:100820000E94D9162FC084E68816910468F480E2ED
:100830000E94D91680E20E94D91689810E94D91699
:100840008A810E94D9161EC0E8EE8E16E3E09E064D
:1008500068F480E20E94D91689810E94D9168A81A3
:100860000E94D9168B810E94D9160CC089810E94E2
:10087000D9168A810E94D9168B810E94D9168C8143
:100880000E94D916F3E07F0E1CC1F501E20FF31FA1
:10089000E181E43018F4EE2319F003C0E1E001C077
:1008A000E1E0F0E0EE0FFF1FE00FF11F808091808C
:1008B0004AE050E0BE016F5F7F4FC4010E94F01F0D
:1008C0008AE08816910450F480E20E94D91680E2F2
:1008D0000E94D91689810E94D91617C0E4E68E16A7
:1008E000910450F480E20E94D91689810E94D916A1
:1008F0008A810E94D91609C089810E94D9168A81ED
:100900000E94D9168B810E94D91673947394D9C012
:10091000E985FA85808091804AE050E0BE016F5FF2
:100920007F4FC4010E94F01FFAE08F16910450F42B
:1009300080E20E94D91680E20E94D91689810E9425
:10094000D91617C084E68816910450F480E20E94FC
:10095000D91689810E94D9168A810E94D91609C0A8
:1009600089810E94D9168A810E94D9168B810E94A2
:10097000D91673947394A5C0F501E20FF31F81811A
:100980008150843008F080E090E0FC01EE0FFF1F02
:10099000EE0FFF1F8E0F9F1FF601E80FF91F8080DB
:1009A00091804AE050E0BE016F5F7F4FC4010E941A
:1009B000F01FEAE08E16910468F480E20E94D916D6
:1009C00080E20E94D91680E20E94D91689810E9495
:1009D000D9162FC0F4E68F16910468F480E20E94C5
:1009E000D91680E20E94D91689810E94D9168A817F
:1009F0000E94D9161EC088EE881683E0980668F417
:100A000080E20E94D91689810E94D9168A810E94AB
:100A1000D9168B810E94D9160CC089810E94D916E3
:100A20008A810E94D9168B810E94D9168C810E94DE
:100A3000D916E3E07E0E45C0F501E20FF31F818178
:100A40008150843008F080E090E0FC01EE0FFF1F41
:100A5000EE0FFF1F8E0F9F1FF601E80FF91F928008
:100A60004AE050E0BE016F5F7F4F892D90E00E9409
:100A7000F01FF9E0F91550F080E20E94D91680E2EB
:100A80000E94D91689810E94D91616C083E689155D
:100A900050F080E20E94D91689810E94D9168A817D
:100AA0000E94D91609C089810E94D9168A810E94A4
:100AB000D9168B810E94D9167394739402C00E9438
:100AC000D9167394872D90E08E159F050CF407CEF0
:100AD0002A96CDBFDEBFDF91CF911F910F91FF907E
:100AE000EF90DF90CF90BF90AF909F908F907F90CE
:100AF0005F904F903F902F9008950F931F93CF9347
:100B0000DF93C62F072F182FD92F80E00E94D2160F
:100B1000CC2389F18FE60E94D91686E70E94D91668
:100B200085E60E94D91682E70E94D91680E20E94CB
:100B3000D91684E70E94D91685E60E94D9168DE65B
:100B40000E94D91680E70E94D91685E60E94D91620
:100B500082E70E94D91681E60E94D91684E70E9496
:100B6000D91685E70E94D91682E70E94D91685E634
:100B70000E94D91606C0C0E180E20E94D916C15079
:100B8000D9F7002389F180E20E94D91680E20E9401
:100B9000D91686E60E94D91681E60E94D9168EE6FD
:100BA0000E94D91680E20E94D91682E60E94D916C8
:100BB0008CE60E94D9168FE60E94D91683E60E9421
:100BC000D9168BE60E94D91685E60E94D91684E6CE
:100BD0000E94D91680E20E94D91680E20E94D9169E
:100BE00080E20E94D91606C0C0E180E20E94D916B8
:100BF000C150D9F7212F3D2F232B89F180E20E948C
:100C0000D91680E20E94D9168CE60E94D9168FE68A
:100C10000E94D91687E70E94D91680E20E94D91651
:100C200086E60E94D9168CE60E94D9168FE60E94AD
:100C3000D91687E70E94D91680E20E94D91682E76A
:100C40000E94D91681E60E94D91684E70E94D9161F
:100C500085E60E94D91680E20E94D91606C0C0E13E
:100C600080E20E94D916C150D9F7DF91CF911F9130
:100C70000F910895AF92BF92CF92DF92EF92FF92C1
:100C80000F931F93CF93DF93D82EC92EE82FF92F00
:100C9000DF010D900020E9F711978D010E1B1F0B4E
:100CA000B02E80E00E94D21680E3801798F1C0E356
:100CB000D0E0CE01801B91098C017C011AF49FEFDA
:100CC000E91AF90AF594E794DE2DEE2039F0C0E038
:100CD00080E20E94D916CF5FCD17D0F3BB2051F030
:100CE000AD2CCD2DDC2D89910E94D9168C2F8A191F
:100CF0008B15C8F3E801CE19D1091C161D0654F452
:100D000010E080E20E94D9161F5F812F90E08C17BF
:100D10009D07BCF3DF91CF911F910F91FF90EF9052
:100D2000DF90CF90BF90AF900895E0E5F0E0808134
:100D300086608083E1E5F0E0808181FFFDCFE1E521
:100D4000F0E0808182FFFDCF1092560081E0809319
:100D5000600098ED94BF809340000895CF93DF9397
:100D6000CDB7DEB7C258D240CDBFDEBF0E949506D8
:100D70000E9412170E9415180E94871D0E94C01C15
:100D80000E943203E2EAF0E08081876080837894F9
:100D90001EA21FA2C45EDE4F1882CC51D140C35E9A
:100DA000DE4F1882CD51D140C25EDE4F1882CE5147
:100DB000D140FE01E15EFE4F88E0DF011D928A9581
:100DC000E9F78AE092E00E941D2081309140B9F459
:100DD0007DC0F801E051FC4F6491C601800F911F66
:100DE0000E9433200F5F1F4F0633110591F7EFEF7D
:100DF000EE1AFE0AF4E0EF16F10439F416C0E12C05
:100E0000F12C0F2EF6E3BF2EF02D00E010E0BE9C7B
:100E1000C001BF9C900D11240F2EF2E3CF2EF1E004
:100E2000DF2EF02DC80ED91ED4CF00E010E0F8015F
:100E3000E851FC4F6491C801865D9E4F0E943320AB
:100E40000F5F1F4F0830110591F700E010E0F80127
:100E5000EC51FC4F6491C8018A5D9E4F0E94332083
:100E60000F5F1F4F0430110591F700E010E0F8010B
:100E7000E052FC4F6491C8018E5D9E4F0E9433206A
:100E80000F5F1F4F0430110591F7EEEDF3E08591F0
:100E90009491682F792F80E291E00E94562000E023
:100EA00010E0F801E254FD4F6491C8018050904079
:100EB0000E9433200F5F1F4F003221E0120789F795
:100EC00061E071E08AE092E00E94562080E291E0C9
:100ED0000E941D20C358DD4F88839983CD57D2408F
:100EE0000E947B1F48ED50E062E371E0CE018896DE
:100EF0000E94112048E050E06AE271E0CE014E9677
:100F00000E94112044E050E066E271E0CE018C5E68
:100F10009E4F0E94112044E050E062E271E0CE0159
:100F2000885E9E4F0E94112040E251E060E070E038
:100F3000CE01895D9E4F0E941120C95DDE4F688100
:100F4000C752D14087E00E94F21EC85DDE4F888103
:100F5000C852D1400E943503C75DDE4F3881C95267
:100F6000D140C95ADD4F3883C755D24088E290E05E
:100F70008C0F9D1FC296C35ADD4F88839983CD5530
:100F8000D240CE018E5C9E4FDE01AC5FBE4FC35A95
:100F9000DD4FE881F981CD55D24041E0BF019D018F
:100FA00021503109FB015081F90150834C936A5C57
:100FB0007F4F15966817790791F783E190E20E94B9
:100FC0003A06F1E0C458DD4FF883CC57D240C75AF7
:100FD000DD4F1882C955D240C759DD4F1882C95616
:100FE000D2402AE0C45ADD4F2883CC55D240C85A9B
:100FF000DD4F1882C855D240CB5ADD4F1882198276
:10100000C555D24035E0CC5ADD4F3883C455D24067
:10101000CD5ADD4F1882C355D24080E091E08C0F4D
:101020009D1F0396C15ADD4F88839983CF55D240C7
:10103000A0E0B1E0AC0FBD1F1296CF59DD4FA883E1
:10104000B983C156D240E8E2F0E0EC0FFD1FF596FF
:10105000CD59DD4FE883F983C356D24028E230E012
:101060002C0F3D1F205D3F4FCB59DD4F2883398327
:10107000C556D24088E290E08C0F9D1FC496C95996
:10108000DD4F88839983C756D240CE58DD4F888381
:10109000C257D240CD58DD4F9883C357D240CC5869
:1010A000DD4F2883C457D240CB58DD4F3883C55716
:1010B000D240CA58DD4FE883C657D240C958DD4FE9
:1010C000F883C757D240C858DD4FA883C857D240CD
:1010D000C758DD4FB883C957D240C15ADD4F9881F8
:1010E000CF55D240C658DD4F9883CA57D240C05A18
:1010F000DD4FA881C056D240C558DD4FA883CB57DD
:10110000D240E7E2F1E0EC0FFD1FB196C158DD4F90
:10111000E883F983CF57D24024E131E02C0F3D1F03
:101120002F5F3F4FCF57DD4F28833983C158D240BF
:10113000CC5ADD4F3881C455D240353010F40C9470
:10114000A115FE017E96DE015696CE01869621916E
:101150002D93E817F907D9F70C94A115CF5ADD4F55
:10116000C882D982C155D240F60131978081882347
:1011700009F4BCC0FE01369646E34A9D90014B9DA2
:10118000300D112408E210E00C0F1D1F020F131F79
:10119000285E3F4F88E290E08C0F9D1F280F391F7B
:1011A000312C4190D8014D918D014416A0F0D90108
:1011B0006C91641580F050E070E0641B750B84E660
:1011C00090E00E94941F842D841B869F602D112423
:1011D000361608F4362ED9018D919D01841530F410
:1011E000611002C0372C02C0252C372CEE15FF05EC
:1011F000C1F6F4018081813009F43FC020F08230D3
:1012000009F0B6C043C0C95BDD4FA881B981C7549E
:10121000D2401C92CF5ADD4FA881B981C155D2402E
:101220008C918823D1F0C35BDD4FA881B981CD5467
:10123000D2408C91831508F09BC05082C15BDD4F7A
:10124000E881F981CF54D2408081C55BDD4FE881D0
:10125000F981CB54D24080838BC05082C15BDD4F7B
:10126000E881F981CF54D2408081C55BDD4FE881B0
:10127000F981CB54D24080837BC024E6C95BDD4F2B
:10128000E881F981C754D240208372C031100AC06E
:10129000CF5ADD4FA881B981C155D2408C918130A0
:1012A00009F41082CF5ADD4FE881F981C155D2404F
:1012B0003397408184E690E0841B9109389E900129
:1012C000399E300D11243695279536952795ABE735
:1012D000B4E10E94D01F96958795480FC95BDD4FFA
:1012E000E881F981C754D240408342C0F401808133
:1012F000813021F118F08230D9F529C0C95BDD4F6A
:10130000A881B981C754D2401C92C75BDD4FA88128
:10131000B981C954D2408C91882351F15082C15B6C
:10132000DD4FE881F981CF54D2408081C55BDD4F2C
:10133000E881F981CB54D24080831AC024E6C95B8E
:10134000DD4FE881F981C754D240208311C0C75BCB
:10135000DD4FA881B981C954D2408C91C95BDD4F62
:10136000A881B981C754D2408C93811101C01082E9
:10137000BFEFAB1ABB0AE5E08E0E911CC15BDD4FDF
:10138000E881F981CF54D240F696C15BDD4FE88306
:10139000F983CF54D240C55BDD4FE881F981CB544E
:1013A000D2403596C55BDD4FE883F983CB54D240FC
:1013B000C95BDD4FE881F981C754D2403596C95BDE
:1013C000DD4FE883F983C754D240C35BDD4FE8812A
:1013D000F981CD54D240F696C35BDD4FE883F983A3
:1013E000CD54D240C75BDD4FE881F981C954D2406A
:1013F000F696C75BDD4FE883F983C954D240F6E324
:10140000CF0ED11C24E0A216B10409F0A7CE8E01A4
:101410000C5F1E4F712CF12CF801329760818F2DDB
:101420000E94F21E8F2D0E943C1FF801349780838A
:101430009183D8012C91223071F4892B61F4C75E1D
:10144000DE4F8881C951D140882329F0B3E0FB16D3
:1014500041F077247394F3940B5F1F4FE4E0FE1286
:10146000DBCF0E945F1F8EA39FA321E030E0C65E0A
:10147000DE4F48815981CA51D1408417950710F039
:1014800020E030E05901CC5EDE4F8881C451D1406C
:10149000882321F0813009F0B1C019C0CB5EDE4F46
:1014A0006881C551D14084E00E94F21ECA5EDE4FC1
:1014B0006881C651D14085E00E94F21EC95EDE4FB0
:1014C0006881C751D14086E00E94F21EAAC0CB5A63
:1014D000DD4F28813981C555D2402436310588F445
:1014E000CB5ADD4F6881C555D24084E00E94F21E80
:1014F00060E085E00E94F21E60E086E00E94F21E3D
:1015000090C0CB5ADD4F88819981C555D240883C27
:10151000910570F468EC681B84E00E94F21E60E0A4
:1015200085E00E94F21E60E086E00E94F21E79C013
:10153000CB5ADD4FA881B981C555D240AC32B140FC
:1015400090F4CB5ADD4F6881C555D240685C85E088
:101550000E94F21E60E084E00E94F21E60E086E0DD
:101560000E94F21E5EC0CB5ADD4F28813981C555DD
:10157000D240203941E0340770F460E9621B85E015
:101580000E94F21E60E084E00E94F21E60E086E0AD
:101590000E94F21E46C0CB5ADD4F88819981C55505
:1015A000D240843F914090F4CB5ADD4F6881C555BD
:1015B000D240605986E00E94F21E60E084E00E9402
:1015C000F21E60E085E00E94F21E2BC0CB5ADD4F78
:1015D000E881F981C555D240E83522E0F207D8F418
:1015E00068E56E1B86E00E94F21E60E084E00E94C7
:1015F000F21E60E085E00E94F21E13C060E086E00B
:101600000E94F21E60E085E00E94F21E64E684E023
:101610000E94F21E06C0CB5ADD4F18821982C555B2
:10162000D2400E94801F882309F4BFC080E091E06F
:101630008C0F9D1F4796FE01EC5FFE4F32E0C65AAD
:10164000DD4FA881B981CA55D240BF01AD012C91AF
:10165000223010F021502C93FA012081213019F40E
:101660001082FB01308315966B5F7F4FA817B90777
:1016700069F7CC5ADD4FF881C455D240FF3F31F0B5
:10168000FF5FCC5ADD4FF883C455D240711005C0BE
:10169000A114B10411F4222059F0C458DD4F28815F
:1016A000CC57D240222321F081E08093E70703C08A
:1016B00081E08093E607C95ADD4F3881C755D24093
:1016C0003150C95ADD4F3883C755D24031112AC035
:1016D000C85ADD4F4881C855D2404F5FC85ADD4FC8
:1016E0004883C855D240E7E2F1E0EC0FFD1FE40F5C
:1016F000F11D8281811105C0C85ADD4F1882C8557D
:10170000D240E7E2F1E0EC0FFD1FC85ADD4F9881AF
:10171000C855D240E90FF11DA281C95ADD4FA883F7
:10172000C755D240C45ADD4FB881CC55D240B11113
:1017300031C0711028C0A114B10429F5211023C0B3
:10174000C12CDD24D394CC0EDD1E0F2EF6E2EF2E3D
:10175000F12CF02DEC0EFD1E8E01015E1E4F9E0140
:10176000245E3E4FAE014A5F5F4FC158DD4F688136
:101770007981CF57D240C85ADD4F8881C855D240B1
:101780000E94380312C0622D772D8A2D9B2D0E9456
:101790007D050BC0C45ADD4FE881CC55D240E150E5
:1017A000C45ADD4FE883CC55D2400E948A1F88235B
:1017B00009F468C14E01F6E08F0E911C7E0126E10E
:1017C000E20EF11C8401802F88190E94051DD801AA
:1017D0008D938D01AE15BF05B1F7CB5ADD4FE88172
:1017E000F981C555D2403196CB5ADD4FE883F98354
:1017F000C555D2408091680684FF02C00C945E16E5
:10180000C759DD4FF881C956D240FF3F91F1FF5FC4
:10181000C759DD4FF883C956D240F23051F5C4584C
:10182000DD4F2881CC57D240222399F081E080936C
:10183000E60784E490E20E943A06C458DD4F18821D
:10184000CC57D24032E0C45ADD4F3883CC55D24019
:1018500010C084E590E20E943A0641E0C458DD4F92
:101860004883CC57D24082E0C45ADD4F8883CC55A0
:10187000D2408091280680FF02C00C946516C75A9A
:10188000DD4F9881C955D2409F3F41F09F5FC75AB5
:10189000DD4F9883C955D2409A3049F0C75ADD4F81
:1018A000A881C955D240A13009F05FC006C0B1E09F
:1018B000C75ADD4FB883C955D240C85ADD4FE881B9
:1018C000C855D240EF5FC85ADD4FE883C855D240B3
:1018D000E7E2F1E0EC0FFD1FC85ADD4F2881C85543
:1018E000D240E20FF11D8281811105C0C85ADD4F3F
:1018F0001882C855D240E7E2F1E0EC0FFD1FC85A4C
:10190000DD4F3881C855D240E30FF11D4281C95ADD
:10191000DD4F4883C755D240711027C0A114B104D0
:1019200021F5211022C0C12CDD24D394CC0EDD1E64
:101930000F2EF6E2EF2EF12CF02DEC0EFD1E8E0197
:10194000015E1E4F9E01245E3E4FAE014A5F5F4F17
:10195000C158DD4F68817981CF57D240C85ADD4FD9
:101960008881C855D2400E943803CD5ADD4F888106
:10197000C355D2408F5FCD5ADD4F8883C355D240C7
:1019800019828330F1F130F4813079F0823009F03E
:1019900079C01CC0CD5ADD4F9881C355D2409430D8
:1019A000E9F1953009F06EC04FC08EE18A8310E0F6
:1019B0001F5F1B83D4018D914D018C831D82CE014D
:1019C00001960E94AA19183199F75CC082E38A83B4
:1019D00081E08B832C821D82CE0101960E94AA1980
:1019E00082E08B837C821D82CE0101960E94AA191F
:1019F00083E08B83AC82BD82CE0101960E94AA193E
:101A000041C08CE38A8381E08B838EA19FA18C836C
:101A10009D83CE0101960E94AA1934C08DE38A836A
:101A20008E011395F12CF394FB82F8018081918152
:101A30008C839D83CE0101960E94AA190B5F1F4FD4
:101A4000F3E0FF12F0CF1EC08EE38A8310E0F12E88
:101A5000C459DD4F08811981CC56D240F394FB82E2
:101A6000D8018C918C831D82CE0101960E94AA1907
:101A70000B5F1F4FB4E0FB12F1CFCD5ADD4F188240
:101A8000C355D240CE0101960E942518811150CB3A
:101A9000898181111BC28A8190E0FC013197E13577
:101AA000F10508F013C2E454FF4F0C94CA1F8B8158
:101AB0008A3A09F03DCB8C819D818535910509F0ED
:101AC00037CBF89488ED84BF81E080937900EFE311
:101AD000FFE13197F1F700C00000F8C18B81FE01F2
:101AE000E80FF11D8C818583CC5ADD4F1882C455D7
:101AF000D240ECC18B8190E001976C81E8E2F0E08C
:101B0000EC0FFD1FE80FF91F60838E5C9E4F0E9453
:101B10002220DCC18B8190E06C81FE01E80FF91F6F
:101B200067AF875B9E4F0E942220D0C18B8190E0DF
:101B30006C81FE01E80FF91FE35AFF4F608389595A
:101B40009E4F0E942220C2C18B8190E06C81FE01D9
:101B5000E80FF91FEB58FF4F608381589E4F0E949A
:101B60002220B4C18B8190E06C81FE01E80FF91F47
:101B7000ED56FF4F608383569E4F0E942220A6C1E0
:101B80008B8190E06C81FE01E80FF91FE555FF4F56
:101B900060838B549E4F0E94222098C18B8190E0DD
:101BA0006C81FE01E80FF91FE753FF4F60838D52F0
:101BB0009E4F0E9422208AC18B8190E06C81FE01A1
:101BC000E80FF91FEF51FF4F608385519E4F0E9430
:101BD00022207CC18B8190E041976C81FE01E80F4F
:101BE000F91F668F865D9E4F0E9422206FC18B81F8
:101BF000ECE1F1E0EC0FFD1FE80FF11D31978C8156
:101C0000808364C1EB81F0E03197EE0FFF1F2FE17D
:101C100031E02C0F3D1FE20FF31F8C819D818083EB
:101C2000918354C18B81813059F46C81C85EDE4F41
:101C30006883C851D14082E291E00E94222046C1CF
:101C4000823009F075CA6C81C75EDE4F6883C95166
:101C5000D14083E291E00E94222038C18B81813003
:101C6000A9F48C819D81C358DD4F88839983CD571A
:101C7000D2400E947B1FC358DD4F68817981CD57C8
:101C8000D24080E291E00E942D2020C1823009F0F4
:101C90004FCA6C817D81C65EDE4F68837983CA51ED
:101CA000D14084E291E00E942D2010C12B8130E0D0
:101CB000215031096C8146E3429FC001439F900D42
:101CC0001124FE01E80FF91FE85AFF4F60838E5977
:101CD0009E4F0E942220FAC08C819D81009781F442
:101CE0008B8190E0019726E3289FF001299FF00D5A
:101CF0001124EC0FFD1FE65AFF4F81E080830FC0D7
:101D00002B8130E02150310996E3929FF001939F9F
:101D1000F00D1124EC0FFD1FE65AFF4F80832B813D
:101D200030E02150310946E3429FC001439F900DAE
:101D30001124FE01E80FF91FE65AFF4F60818C590C
:101D40009E4F0E942220C2C02B8130E021503109D9
:101D50006C8146E3429FC001439F900D1124FE0118
:101D6000E80FF91FE75AFF4F60838D599E4F0E947D
:101D70002220ACC02B8130E0215031096C8146E338
:101D8000429FC001439F900D1124FE01E80FF91FEF
:101D9000E55AFF4F60838B599E4F0E94222096C0C8
:101DA0002B8130E0215031096C8146E3429FC00114
:101DB000439F900D1124FE01E80FF91FE45AFF4FD5
:101DC00060838A599E4F0E94222080C02B8130E080
:101DD000215031096C8146E3429FC001439F900D21
:101DE0001124FE01E80FF91FE35AFF4F6083895960
:101DF0009E4F0E9422206AC08B81813099F46C81B1
:101E0000C95DDE4F6883C752D14087E00E94F21E51
:101E1000C95DDE4F6881C752D14080E090E00E94EA
:101E2000222054C0823009F083C98C81C85DDE4F06
:101E30008883C852D1400E943503C85DDE4F688157
:101E4000C852D14081E090E00E9422203FC06C81C6
:101E5000CC5EDE4F6883C451D14086E291E00E949F
:101E60002220CB5ADD4F18821982C555D2402EC090
:101E70008B8190E0FC0131976C81A4E1B1E0AC0F63
:101E8000BD1FEA0FFB1F61838A5D9E4F0E942220C7
:101E90001DC08B8190E06C81E7E2F1E0EC0FFD1F4B
:101EA000E80FF91F60A3805E9F4F0E9422200EC0A2
:101EB0008B8190E06C81E7E2F1E0EC0FFD1FE80F11
:101EC000F91F61838F5F9F4F0E942220898181309B
:101ED00009F02EC91982EA81F0E0E235F10508F037
:101EE00027C9E35FFE4F0C94CA1F12E01A8381E0FA
:101EF0008B8385E090E08C839D83CE0101960E94C8
:101F0000AA191B8381E090E08C839D83CE0101960A
:101F10000E94AA190F2EF8E2AF2EB12CF02DAC0EB4
:101F2000BD1E6501B8E1CB0ED11C7501E6E3EE0ED6
:101F3000F11C9E012A583F4FC95BDD4F288339832E
:101F4000C754D2404E0134E9830E911C3E014CEA45
:101F5000640E711C2E018AEC480E511C1E0192EE7B
:101F6000290E311C10E008E1ABE0AA831F5F1B8340
:101F7000F50181915F018C831D82CE0101960E9443
:101F8000AA19F5E1FA83D6018D916D018C831D822A
:101F9000CE0101960E94AA19BCE0BA83F701819193
:101FA0007F018C831D82CE0101960E94AA19F6E161
:101FB000FA83C95BDD4FA881B981C754D2408D91A6
:101FC000C95BDD4FA883B983C754D2408C831D827F
:101FD000CE0101960E94AA19BDE0BA83F401819155
:101FE0004F018C831D82CE0101960E94AA19F7E150
:101FF000FA83D3018D913D018C831D82CE01019620
:102000000E94AA19BEE0BA83F20181912F018C834C
:102010001D82CE0101960E94AA190A83D1018D91D9
:102020001D018C831D82CE0101960E94AA191831D0
:1020300009F09ACF8FE18A838E01025E1F4F0F2E27
:10204000F1E1FF2EF02DFB82F80181918F018C834D
:102050001D82CE0101960E94AA19F394F9E1FF12A4
:10206000F2CF80E28A8381E08B830E947E1D8C8385
:102070001D82CE0101960E94AA1981E28A8310E096
:102080000DC0012F0F5F0B83812F0E94811D8C8358
:102090001D82CE0101960E94AA19102F0E947E1D5A
:1020A000212F30E048E0849FC00111242817390710
:1020B00044F383E38A8301E00B83C85EDE4F8881AB
:1020C000C851D1408C831D82CE0101960E94AA196D
:1020D00012E01B83C75EDE4F8881C951D1408C83DB
:1020E0001D82CE0101960E94AA1986E48A830B8381
:1020F000C358DD4F88819981CD57D2408C839D8311
:10210000CE0101960E94AA191B83C65EDE4F88810C
:102110009981CA51D1408C839D83CE0101960E9442
:10212000AA1910E00F2EF7E4BF2EF02D0F2EF8E4C1
:10213000CF2EF02D0F2EF9E4DF2EF02D0F2EFAE426
:10214000EF2EF02D0F2EFBE4FF2EF02D0CE4C659E0
:10215000DD4F88809980CA56D240BA821F5F1B83A8
:10216000F401359780818C831D82CE0101960E94F7
:10217000AA19CA82F401339780818C831D82CE0113
:1021800001960E94AA19DA82F401349780818C8327
:102190001D82CE0101960E94AA19EA82F4013297AB
:1021A00080818C831D82CE0101960E94AA19FA8239
:1021B000F401319780818C831D82CE0101960E94AB
:1021C000AA190A83D4018C918C831D82CE010196B9
:1021D0000E94AA19B6E38B0E911C143009F0BDCFF2
:1021E0008DE48A8311E01B83C95DDE4F8881C7526D
:1021F000D1408C831D82CE0101960E94AA1982E0F3
:102200008B83C85DDE4F8881C852D1408C831D828C
:10221000CE0101960E94AA198EE48A831B83CC5EAC
:10222000DE4F8881C451D1408C831D82CE0101963E
:102230000E94AA198FE48A83CF57DD4F0881198144
:10224000C158D240F12CF394FB82F80181918F01A7
:102250008C831D82CE0101960E94AA19F3E0FF1221
:10226000F2CF80E58A83C158DD4F08811981CF57AD
:10227000D240F12CF394FB82D8018D918D018C8397
:102280001D82CE0101960E94AA19BFEFFB12F2CF68
:1022900081E58A8307E211E00C0F1D1F0E5F1F4FBF
:1022A000F12CF394FB82F80181918F018C831D82C4
:1022B000CE0101960E94AA19FFE1FF12F2CF0C9401
:1022C00098088B81811116C081E08B8385E090E0B6
:1022D0008C839D83CE0101960E94AA1982E08B8394
:1022E00081E090E08C839D83CE0101960E94AA1923
:1022F0000C949808813051F485E090E08C839D83A4
:10230000CE0101960E94AA190C949808823011F00F
:102310000C94980881E090E08C839D83CE01019617
:102320000E94AA190C9498088B81811114C08E0107
:10233000085D1F4FF12CF394FB82D8018D918D0124
:102340008C831D82CE0101960E94AA19B8E1FB126E
:10235000F2CF0C949808FE01E80FF11D87A18C8341
:102360001D82CE0101960E94AA190C9498088B81B7
:10237000811117C008E210E00C0F1D1F085E1F4FEF
:10238000F12CF394FB82F80181918F018C831D82E3
:10239000CE0101960E94AA19F8E1FF12F2CF0C9427
:1023A0009808FE01E80FF11D87AD8C831D82CE01D8
:1023B00001960E94AA190C9498088B81811117C06C
:1023C00008E210E00C0F1D1F0A5C1F4FF12CF39464
:1023D000FB82D8018D918D018C831D82CE010196E7
:1023E0000E94AA19B8E1FB12F2CF0C949808EDE50F
:1023F000F0E0EC0FFD1FE80FF11D80818C831D8242
:10240000CE0101960E94AA190C9498088B81811123
:1024100014C08E010A581F4FF12CF394FB82F8016F
:1024200081918F018C831D82CE0101960E94AA1991
:10243000F8E1FF12F2CF0C949808E5E7F0E0EC0F1A
:10244000FD1FE80FF11D80818C831D82CE01019656
:102450000E94AA190C9498088B81811114C08E01D6
:102460000C561F4FF12CF394FB82D8018D918D01F6
:102470008C831D82CE0101960E94AA19B8E1FB123D
:10248000F2CF0C949808E3E9F0E0EC0FFD1FE80FA1
:10249000F11D80818C831D82CE0101960E94AA19B4
:1024A0000C9498088B81811114C08E0104551F4F24
:1024B000F12CF394FB82F80181918F018C831D82B2
:1024C000CE0101960E94AA19F8E1FF12F2CF0C94F6
:1024D0009808EBEAF0E0EC0FFD1FE80FF11D80819A
:1024E0008C831D82CE0101960E94AA190C94980833
:1024F0008B81811114C08E0106531F4FF12CF39470
:10250000FB82D8018D918D018C831D82CE010196B5
:102510000E94AA19B8E1FB12F2CF0C949808E9ECDA
:10252000F0E0EC0FFD1FE80FF11D80818C831D8210
:10253000CE0101960E94AA190C9498088B818111F2
:1025400014C08E010E511F4FF12CF394FB82F80141
:1025500081918F018C831D82CE0101960E94AA1960
:10256000F8E1FF12F2CF0C949808E1EEF0E0EC0FE6
:10257000FD1FE80FF11D80818C831D82CE01019625
:102580000E94AA190C9498088B81811117C08E01A2
:10259000025E1F4F0F2EF1E1FF2EF02DFB82D801BE
:1025A0008D918D018C831D82CE0101960E94AA1906
:1025B000F394B9E1FB12F2CF0C949808FE01E80FF6
:1025C000F11D85858C831D82CE0101960E94AA197A
:1025D0000C94980881E08B830E947E1D8C831D8261
:1025E000CE0101960E94AA190C9498088B81882329
:1025F00079F01CC0012F0F5F0B83812F0E94811D7A
:102600008C831D82CE0101960E94AA19102F01C051
:1026100010E00E947E1D212F30E0E8E08E9FC00177
:1026200011242817390734F30C94980881500E941C
:10263000811D8C831D82CE0101960E94AA190C94E3
:1026400098088B81813011F128F0823011F00C94C0
:10265000980829C081E08B83C85EDE4F8881C8510D
:10266000D1408C831D82CE0101960E94AA1982E07E
:102670008B83C75EDE4F8881C951D1408C831D8218
:10268000CE0101960E94AA190C949808C85EDE4FEC
:102690008881C851D1408C831D82CE0101960E9451
:1026A000AA190C949808C75EDE4F8881C951D140A1
:1026B0008C831D82CE0101960E94AA190C94980861
:1026C0008B81813021F128F0823011F00C94980830
:1026D0002CC081E08B83C358DD4F28813981CD57D1
:1026E000D2402C833D83CE0101960E94AA1982E03C
:1026F0008B83C65EDE4F88819981CA51D1408C831D
:102700009D83CE0101960E94AA190C949808C35883
:10271000DD4F88819981CD57D2408C839D83CE0136
:1027200001960E94AA190C949808C65EDE4F888113
:102730009981CA51D1408C839D83CE0101960E941C
:10274000AA190C9498088B81811119C010E0F12E00
:10275000C059DD4F08811981C057D240F394FB82E4
:10276000D8018C918C831D82CE0101960E94AA19FA
:102770000A5C1F4FB4E0FB12F1CF0C94980890E074
:10278000019726E3289FF001299FF00D112421E0F5
:1027900030E02C0F3D1FE20FF31FE95AFF4F8081FD
:1027A0008C831D82C9010E94AA190C9498088B8100
:1027B000811118C0C35ADD4F08811981CD55D2400F
:1027C000F12CF394FB82D8018C918C831D82CE0175
:1027D00001960E94AA190A5C1F4FB4E0FB12F1CFC8
:1027E0000C94980890E0019726E3289FF001299F18
:1027F000F00D112421E030E02C0F3D1FE20FF31FFC
:10280000E75AFF4F80818C831D82C9010E94AA195B
:102810000C9498088B81811118C008E210E00C0F0D
:102820001D1F0F5C1F4FF12CF394FB82D8018C917C
:102830008C831D82CE0101960E94AA190A5C1F4F4B
:10284000B4E0FB12F1CF0C94980890E0019726E3D6
:10285000289FF001299FF00D112421E030E02C0F7A
:102860003D1FE20FF31FE85AFF4F80818C831D82CA
:10287000C9010E94AA190C9498088B81811118C073
:1028800008E210E00C0F1D1F0D5C1F4FF12CF3949C
:10289000FB82D8018C918C831D82CE0101960E940F
:1028A000AA190A5C1F4FB4E0FB12F1CF0C949808F0
:1028B00090E0019726E3289FF001299FF00D112455
:1028C00021E030E02C0F3D1FE20FF31FE65AFF4FCF
:1028D00080818C831D82C9010E94AA190C949808DA
:1028E0008B81811119C010E0F12EC259DD4F088192
:1028F0001981CE56D240F394FB82D8018C918C83FF
:102900001D82CE0101960E94AA190A5C1F4FB4E0F5
:10291000FB12F1CF0C94980890E0019726E3289FD2
:10292000F001299FF00D112421E030E02C0F3D1F14
:10293000E20FF31FE55AFF4F80818C831D82C9018E
:102940000E94AA190C9498088B81811119C010E07B
:10295000F12EC659DD4F08811981CA56D240F39431
:10296000FB82D8018C918C831D82CE0101960E943E
:10297000AA190A5C1F4FB4E0FB12F1CF0C9498081F
:1029800090E0019726E3289FF001299FF00D112484
:1029900021E030E02C0F3D1FE20FF31FE45AFF4F00
:1029A00080818C831D82C9010E94AA190C94980809
:1029B0008B81813011F128F0823011F00C9498084D
:1029C00029C081E08B83C95DDE4F8881C752D14029
:1029D0008C831D82CE0101960E94AA1982E08B830E
:1029E000C85DDE4F8881C852D1408C831D82CE01E4
:1029F00001960E94AA190C949808C95DDE4F88813F
:102A0000C752D1408C831D82CE0101960E94AA1923
:102A10000C949808C85DDE4F8881C852D1408C83E1
:102A20001D82CE0101960E94AA190C94980881E09B
:102A30008B83CC5EDE4F8881C451D1408C831D8254
:102A4000CE0101960E94AA190C9498088B818111DD
:102A500017C0CF57DD4F08811981C158D240F12CE2
:102A6000F394FB82D8018D918D018C831D82CE0160
:102A700001960E94AA19B3E0FB12F2CF0C949808B9
:102A8000E4E1F1E0EC0FFD1FE80FF11D80818C8384
:102A90001D82CE0101960E94AA190C9498088B8180
:102AA000811117C0C158DD4F08811981CF57D2401D
:102AB000F12CF394FB82F80181918F018C831D82AC
:102AC000CE0101960E94AA19FFEFFF12F2CF0C94DB
:102AD0009808E7E2F1E0EC0FFD1FE80FF11D80A17F
:102AE0008C831D82CE0101960E94AA190C9498082D
:102AF0008B81811117C007E211E00C0F1D1F0E5FC3
:102B00001F4FF12CF394FB82D8018D918D018C83A2
:102B10001D82CE0101960E94AA19BFE1FB12F2CFDD
:102B20000C949808E7E2F1E0EC0FFD1FE80FF11DAF
:102B300081818C831D82CE0101960E94AA190C947A
:102B40009808C85EDE4F6880C851D140C15ADD4F39
:102B5000E881F981CF55D240C65ADD4FE883F98329
:102B6000CA55D240CF59DD4F28813981C156D24054
:102B7000C459DD4F28833983CC56D240CD59DD4F1F
:102B800088819981C356D240C659DD4F8883998385
:102B9000CA56D240CB59DD4FA881B981C556D24023
:102BA000C059DD4FA883B983C057D240C959DD4F02
:102BB000E881F981C756D240C259DD4FE883F983D5
:102BC000CE56D240CE58DD4FC880C257D240CD58E5
:102BD000DD4FD880C357D240CC58DD4FF881C45761
:102BE000D240C75BDD4FF883C954D240CB58DD4F8C
:102BF0002881C557D240C65BDD4F2883CA54D240D6
:102C0000CA58DD4F3881C657D240C35BDD4F388389
:102C1000CD54D240C958DD4F4881C757D240C25B1E
:102C2000DD4F4883CE54D240C858DD4F8881C85705
:102C3000D240C95BDD4F8883C754D240C758DD4FAF
:102C40009881C957D240C85BDD4F9883C854D240A1
:102C5000C658DD4FA881CA57D240C55BDD4FA88357
:102C6000CB54D240C558DD4FB881CB57D240C45B5E
:102C7000DD4FB883CC54D240C35ADD4FE881F9818F
:102C8000CD55D240C15BDD4FE883F983CF54D240AC
:102C90006894882482F8992493948C0E9D1EA12C0C
:102CA000B12C212C552453947E01FEE1EF0EF11C32
:102CB0000F2EF4E67F2EF02D0C94AE08C759DD4F91
:102CC0001882C956D2400C94390CC75ADD4F18826D
:102CD000C955D2400C944E0CCF93DF93E4E4F6E058
:102CE0009081937C90832081982F969596959C73E4
:102CF000922B9083C5E2D6E044E048839AE09A950F
:102D0000F1F700C0A6E2B6E04C939AE09A95F1F78D
:102D100000C09081937C90835081282F30E0C901BE
:102D2000880F991F880F991F8C739927852B808393
:102D300048838AE08A95F1F700C04C9387ED90E0D4
:102D40000197F1F700C00000DF91CF91089588E06E
:102D50008093260689E20E946C1689E20E946C1616
:102D600089E20E946C1685E10E946C1685E50E943E
:102D70006C168EE60E946C1682E70E946C1688E242
:102D80000E946C168CE00E946C1681E00E946C160A
:102D90008FEB91E20197F1F700C0000086E00E94FE
:102DA0006C16089598E09093260680680E946C1631
:102DB000089598E0909325060E946C160895CF938D
:102DC000DF9300D0CDB7DEB72FE3829FC00111247F
:102DD0009C013695279536952795ABE7B4E10E947F
:102DE000D01F96958795803408F08FE3982F9F70B9
:102DF000998382958F708A8388E08093260689E282
:102E00000E946C168A8184650E946C168981806795
:102E10000E946C1688E20E946C160F900F90DF9152
:102E2000CF910895109200068CE08093200628E14F
:102E30002093300682E0809331069CEB909340060D
:102E40009FE09093600620937406809375068093AC
:102E50007606809377069093800681E08093E00762
:102E60000895CF93DF936623E1F0282FA82FB92F81
:102E7000E3EBF8E080818C7F8083C0916621D0E015
:102E8000C859DE4D8D918883809166218F5F8F7345
:102E9000809366218081816080838A2F821B8617C0
:102EA00048F3DF91CF9108951F920F920FB60F92C2
:102EB00011248F939F93EF93FF93E0916721F0E0AC
:102EC000E859FE4D80818093B008809167218F5F23
:102ED0008F73809367219091672180916621981369
:102EE00005C0E3EBF8E080818C7F8083FF91EF9158
:102EF0009F918F910F900FBE0F901F90189580910A
:102F0000B308837079F090916621809167219817BA
:102F100059F09091662180916721981B9F7380E4FE
:102F2000891B089580E4089580E008951F920F9210
:102F30000FB60F9211248F93EF93FF93E0916420CB
:102F4000F0E08091B008EA59FF4D808380916420C1
:102F50008F5F80936420FF91EF918F910F900FBE50
:102F60000F901F90189520916520309164202317B1
:102F700009F459C0E22FF0E0EA59FF4D30813D30AD
:102F800041F436C0E22FF0E0EA59FF4D30813D3088
:102F900089F12F5F309164203213F4CF80E00895DF
:102FA000E0916520F0E0EA59FF4D2081FC01E70F38
:102FB000F11D2083209165202F5F209365207F5F86
:102FC000272F30E024173507D1F4E0916520F0E099
:102FD000EA59FF4D20812D3091F0FC01E70FF11DE2
:102FE0001082809165208F5F8093652080E0089536
:102FF00070E001C070E0462F50E041505109E0916F
:103000006520F0E0EA59FF4D20812D3049F6FC01A2
:10301000E70FF11D1082809165208F5F80936520FE
:10302000872F8F5F089580E0089584EB8093B70821
:1030300087E38093B60880E38093B30883E08093AE
:10304000B50888E18093B40808950F931F93CF9338
:10305000DF93CDB7DEB76597CDBFDEBF8C0160E1F2
:10306000CE0101960E94B317882309F43CC18A302F
:1030700008F43BC1813108F03AC1FE01319620E0ED
:1030800030E0A0E070E0A9019191933209F57F5FF3
:10309000713019F4213081F02CC1723019F42430D0
:1030A000B9F029C1733041F4263008F426C1293023
:1030B00008F025C1A22F0CC0753051F44A1B5109EC
:1030C000423051050CF41DC1473051050CF01BC1B5
:1030D0002F5F3F4F2817B8F2743009F016C189816D
:1030E0008053F80180839C8190518B81880F282F19
:1030F000220F220F820F890F81838E81833209F084
:1031000016C105C181E001C082E08230C9F0833080
:1031100029F0813009F0FDC020C08B8B9B89905D28
:103120008989F4E68F9F900D11248A89880F282FB2
:10313000220F220F820F890FF8018283A9E012C0AB
:103140009A8990518989880F282F220F220F820F88
:10315000890FF8018283A8E005C089898053F801AE
:103160008283A7E0B0E0FE01EA0FFB1F818183327A
:1031700009F0D5C0D0C09D91933229F091938F5F13
:103180008530C9F710C0833009F472C038F481303B
:1031900009F4A1C0823009F0C0C088C08430E9F1D0
:1031A000853009F0BAC02D8930E0205D34418B892B
:1031B000F4E68F9F200D311D11248C8990E0880F3B
:1031C000991FAC01440F551F440F551F840F951FC5
:1031D000280F391F698970E06053710940E157E297
:1031E000649FC001659F900D749F900D1124280F5E
:1031F000391F6A8970E06053710948EE53E0649F9B
:10320000C001659F900D749F900D1124820F931F34
:10321000F8018383948380E095C02C8930E0205DA1
:1032200034418A89F4E68F9F200D311D11248B894A
:1032300090E0880F991FAC01440F551F440F551F94
:10324000840F951F280F391F698970E06053710939
:1032500048EE53E0649FC001659F900D749F900DF0
:103260001124820F931FF8018383948380E06AC046
:103270002B8930E0205132408A8990E0880F991FD5
:10328000AC01440F551F440F551F840F951F820F2B
:10329000931F2989F4E62F9F800D911D1124805CD6
:1032A0009241F8018383948380E04CC04A898989E4
:1032B00090E0880F991F9C01220F331F220F331FAC
:1032C000820F931F840F911D80519240F8018383D8
:1032D000948380E037C0898990E0C097F8018383A8
:1032E000948380E02FC081E02DC082E02BC083E07A
:1032F00029C084E027C085E025C086E023C087E0A0
:1033000021C088E01FC089E01DC08AE01BC08BE09F
:1033100019C08BE017C08CE015C08CE013C0898BFE
:10332000AC0FBD1F1296FE01729681E024CF898BEF
:103330008F81833209F4E6CE8A8B8885833209F047
:10334000ECCEE2CE6596CDBFDEBFDF91CF911F916F
:103350000F910895FF920F931F93CF93DF93CDB7F3
:10336000DEB76097CDBFDEBFFC018081805D8983C1
:1033700083E28A8391812DEC929F212D1124269541
:1033800026952695322F305D3B83220F322F330F47
:10339000330F230F921B905D9C838D8382818A3033
:1033A00028F4805D8E83FF24F39441C08436B0F40A
:1033B0009DEC899F912D1124969596959695292F90
:1033C000205D2E83990F292F220F220F920F891B28
:1033D000805D8F836894FF24F1F829C099E2899F6A
:1033E000912D112492959F70292F205D2E83282FD7
:1033F00034E6939F201911249DEC299F212D11243F
:10340000269526952695205D2F83899F912D112441
:10341000969596959695990F292F220F220F920F28
:10342000891B805D88870F2EF3E0FF2EF02D0F2D76
:1034300010E0DE01A00FB11F83E216968C93169761
:10344000438154814A30510528F4FD01405D478392
:1034500081E08DC14436510528F5FE01E00FF11FD2
:103460009A01ADECBCEC0E94D01F9695879596957D
:10347000879596958795282F205D2783FE01E00F7D
:10348000F11F9C01220F331F880F991F880F991F6E
:10349000880F991F820F931F481B590B405D40876F
:1034A00082E065C1483E83E0580708F047C0FE014E
:1034B000E00FF11F9A013695279536952795ABE7D2
:1034C000B4E10E94D01F96958795282F205D278311
:1034D000FE01E00FF11F64E6689F9001699F300DC7
:1034E0001124CA01821B930B9C01ADECBCEC0E9421
:1034F000D01F969587959695879596958795805D2B
:103500008087FE01E00FF11F9A010E94D01F96955F
:10351000879596958795969587959C01220F331FE1
:10352000880F991F880F991F880F991F820F931F6B
:10353000481B590B405D418783E019C1403197E238
:10354000590708F072C0FE01E00FF11F9A0136958D
:1035500027953695279536952795A5ECB0E20E94DC
:10356000D01F929582958F7089279F708927282F69
:10357000205D2783FE01E00FF11F68EE73E0869F58
:103580009001879F300D969F300D1124CA01821B38
:10359000930B9C013695279536952795ABE7B4E1BB
:1035A0000E94D01F96958795805D8087FE01E00F71
:1035B000F11F9A0136952795369527950E94D01FC1
:1035C0009695879564E6689F9001699F300D112458
:1035D000CA01821B930B9C01ADECBCEC0E94D01F76
:1035E000969587959695879596958795805D818721
:1035F000FE01E00FF11F9A010E94D01F969587955A
:1036000096958795969587959C01220F331F880F75
:10361000991F880F991F880F991F820F931F481BAE
:10362000590B405D428784E0A2C0FE01E00FF11F0C
:103630009A01329522952F7023273F702327A7E404
:10364000B3E00E94D01F969587959695879596959D
:103650008795282F205D2783FE01E00FF11F60E191
:1036600077E2869F9001879F300D969F300D112441
:10367000CA01821B930B9C01369527953695279599
:1036800036952795A5ECB0E20E94D01F92958295C1
:103690008F7089279F708927805D8087FE01E00FEA
:1036A000F11F9A01369527953695279536952795DA
:1036B0000E94D01F929582958F7089279F708927CD
:1036C00068EE73E0869F9001879F300D969F300DC6
:1036D0001124CA01821B930B9C01369527953695C0
:1036E0002795ABE7B4E10E94D01F96958795805D42
:1036F0008187FE01E00FF11F9A01369527953695D7
:1037000027950E94D01F9695879564E6689F900143
:10371000699F300D1124CA01821B930B9C01ADECF3
:10372000BCEC0E94D01F96958795969587959695A7
:103730008795805D8287FE01E00FF11F9A010E944C
:10374000D01F9695879596958795969587959C0118
:10375000220F331F880F991F880F991F880F991FF9
:10376000820F931F481B590B405D438785E0080F6C
:10377000111DFE01E00FF11F93E29783FE01E00FA0
:10378000F11F9DE090879F2D985FF92EF80E0E9403
:103790007F178F15E0F36F2DCE0101960E94311730
:1037A0006096CDBFDEBFDF91CF911F910F91FF904B
:1037B00008952FB7F894E0EEF7E09081926090833F
:1037C00095E19A95F1F70000882319F090819D7F8B
:1037D0009083EAE8EA95F1F700C09091E80791FF3D
:1037E00080E0E7E5F1E03197F1F700C00000E0EE9E
:1037F000F7E090819D7F90832FBFFAE6FA95F1F76D
:1038000000C00895E4EEF7E080818D7F8083E0EED4
:10381000F7E08081826080838FE09FE00197F1F77D
:1038200000C000009FB7F89480818D7F8083AFEF48
:10383000B1E01197F1F700C00000E8EEF7E08081F9
:103840009FBFAFE0BDE01197F1F700C0000090818D
:1038500091FF02C08270089581E00895CF93DF93B5
:10386000C82FD8E08C2F81700E94D91BC69581117A
:10387000C068D150B9F78C2FDF91CF910895FF9296
:103880000F931F93CF93DF93F82EEB010E94021C3E
:10389000209769F085E50E942E1C8E01085F1F4F5E
:1038A00089910E942E1CC017D107D1F703C08CEC60
:1038B0000E942E1C8F2D0E942E1CDF91CF911F91F4
:1038C0000F91FF9008958FEF0E942E1C0895DF92B4
:1038D000EF92FF920F931F93CF93DF93D82EEB01BC
:1038E0000E94021C811127C080EF0E942E1CE12C37
:1038F00010E40F2EF8EFFF2EF02DF10E81E00E9464
:10390000D91B082F81E00E94D91B882319F00023BE
:10391000D1F014C0011123C01D15E0F0888180FF93
:1039200012C0D1121AC00FC011501F11E7CF21963B
:103930001111DFCF1CC0EE24EA9419C00F2EFEEF48
:10394000EF2EF02D14C0802F0E94D91B98819695E0
:103950009883EACFE12E01E002C0E12E01E0802F42
:103960000E94D91B9881969590689883DDCF8E2D03
:10397000DF91CF911F910F91FF90EF90DF9008950D
:10398000CF93DF931F92CDB7DEB71092010282E092
:103990008093020283E08093040281E080932002FE
:1039A000809300028FEF89838981882309F16091D8
:1039B000A8216830E8F4898170E0660F771F660FF0
:1039C000771F660F771F60547E4D0E94671C8983A6
:1039D00089818F3F69F089818E3F51F06091A821E4
:1039E0006F5F6093A8218981882311F0683018F3F4
:1039F0008091A821882329F060E070E084E40E948F
:103A00003F1C0F90DF91CF910895FF920F931F936A
:103A1000CF93DF93082F8091A821882389F181E03B
:103A20000E94D91B882361F18091A821882319F174
:103A300010E00F2EF7ECFF2EF02DC12FD0E0BE01CD
:103A4000660F771F660F771F660F771F60547E4DD6
:103A50008EEB0E943F1C0E94631C883C20F4C050E7
:103A6000D04E888303C0C050D04EF8821F5F809133
:103A7000A821181710F360E070E084E40E943F1C56
:103A8000083020F5000F000F000F00932102E0E244
:103A9000F2E0808180688083E3E2F2E08081882325
:103AA000E9F381E080932302E0912402F091250262
:103AB000EF3F8FE0F807C9F0F695E795F695E795A3
:103AC000F695E795EA5DFB4F849112C0802F90E058
:103AD0002091A82130E0285F3F4F821793073CF4E4
:103AE000FC01E850F04E808103C08CED01C08CEDEC
:103AF000DF91CF911F910F91FF9008958091A821A0
:103B00000895E82FF0E0E054FE4D8081089535EFF0
:103B10003093010A8FE391E08093260A9093270A5D
:103B200022E02093000A30930109809326099093A4
:103B300027092093000989E5809380018DE6809311
:103B400081018EE6809382018FE68093830188E273
:103B50008093030880EF809301088FEF9FEF80939D
:103B600026089093270886E08093000883E08093DE
:103B700006088AEA809307081092410884E39CE0D3
:103B8000809366089093670881E08093460887E0F9
:103B90008093400808951F920F920FB60F92112440
:103BA0002F933F934F935F938F939F938091280818
:103BB0009091290820911220223058F42091BC21A4
:103BC0003091BD21AC01421B530B4093BE21509359
:103BD000BF218093BC219093BD2180911220882326
:103BE00029F0809112208150809312209F918F9113
:103BF0005F914F913F912F910F900FBE0F901F90AB
:103C000018951F920F920FB60F9211242F933F9386
:103C10004F935F938F939F93EF93FF9380912A0825
:103C200090912B0820910E20223058F42091AB2146
:103C30003091AC21AC01421B530B4093B321509304
:103C4000B4218093AB219093AC2180910E208823E6
:103C500029F0EEE0F0E2808181508083FF91EF91C6
:103C60009F918F915F914F913F912F910F900FBE38
:103C70000F901F9018951F920F920FB60F9211245C
:103C80002F933F934F935F938F939F93EF93FF9364
:103C900080912C0890912D0820910F20223058F40B
:103CA0002091AD213091AE21AC01421B530B4093CA
:103CB000B5215093B6218093AD219093AE21809190
:103CC0000F20882329F0EFE0F0E28081815080838B
:103CD000FF91EF919F918F915F914F913F912F9124
:103CE0000F900FBE0F901F9018951F920F920FB656
:103CF0000F9211242F933F934F935F938F939F9332
:103D0000EF93FF9380912E0890912F08209110201F
:103D1000223058F42091AF213091B021AC01421BE8
:103D2000530B4093B7215093B8218093AF219093C8
:103D3000B02180911020882329F0E0E1F0E2808119
:103D400081508083FF91EF919F918F915F914F916F
:103D50003F912F910F900FBE0F901F9018951F92BB
:103D60000F920FB60F9211242F933F938F939F932F
:103D7000AF93BF93EF93FF93809112208093BB2169
:103D800082E08093122080E090E032E0FC01E25F6C
:103D9000FF4D2081DC01A65FBF4D2C93308301963F
:103DA0008430910599F781E08093AA21FF91EF91EA
:103DB000BF91AF919F918F913F912F910F900FBE27
:103DC0000F901F9018951F920F920FB60F9211240B
:103DD0008F9381E08093A9218F910F900FBE0F9058
:103DE0001F901895E82F653608F045C04FE351E065
:103DF000649FC001659F900D112464E670E00E94ED
:103E0000941FE33001F120F4E13099F0B8F408C0D8
:103E1000E53019F1E8F0E63029F1E73061F527C027
:103E20008FE391E0861B970B80933A0A90933B0AAD
:103E3000089560933C0A70933D0A089560933E0A8A
:103E400070933F0A089560933E0970933F09089567
:103E500060933C0970933D09089560933A0970930B
:103E60003B09089560933809709339090895609368
:103E7000380A7093390A089590E0FC01E65FFF4D1F
:103E80002081211117C0FC01EE0FFF1FED54FE4DE4
:103E900020813181C901A0E0B0E09C01AD01220F79
:103EA000331F441F551F60EE70E782E790E00E94C9
:103EB000A81F02C020E030E0822F932F0895809148
:103EC000BB21811113C0A091BE21B091BF212091CF
:103ED0000820309109200E94D01F9B01AC0160E8AE
:103EE00074E782ED9AE10E94A81F02C020E030E052
:103EF000822F932F0895809308209093092008958E
:103F00008091AA21882321F01092AA2181E00895AE
:103F100080E008958091A921882321F01092A921A1
:103F200081E0089580E0089597FB072E16F4009431
:103F300007D077FD09D00E94DC1F07FC05D03EF4B6
:103F4000909581959F4F0895709561957F4F089545
:103F5000A1E21A2EAA1BBB1BFD010DC0AA1FBB1F8D
:103F6000EE1FFF1FA217B307E407F50720F0A21BFF
:103F7000B30BE40BF50B661F771F881F991F1A946C
:103F800069F760957095809590959B01AC01BD0196
:103F9000CF010895EE0FFF1F0590F491E02D0994D5
:103FA000A29FB001B39FC001A39F01D0B29F700D2B
:103FB000811D1124911D0895AA1BBB1B51E107C04F
:103FC000AA1FBB1FA617B70710F0A61BB70B881FA9
:103FD000991F5A95A9F780959095BC01CD01089538
:103FE000FB019F01E8944230C4F04532B4F44A30FA
:103FF00029F497FB1EF4909581959F4F642F7727A6
:104000000E94DC1F805D8A330CF0895D8193CB01B7
:104010000097A1F716F45DE251931082C9010C9448
:104020007420E0ECF1E0A785A7FDFDCFA485A86092
:10403000A4876050704F0C946B200E945F20808199
:1040400091810895262F0E945F200080021619F0AA
:104050000E9434200197019708950196272F0E940E
:1040600023200C942220262FE0ECF1E0378537FD49
:10407000FDCF3485377F3487378531FF09C036E37C
:10408000328738ED34BF31E03387378537FDFDCFD8
:1040900033E33287808391831282248325E322874E
:1040A00028ED31E024BF3387019608950E94332024
:1040B000272F0C94342003D0808199270895E0ECB9
:1040C000F1E0378537FDFDCF348538603487FC015A
:1040D000E050F04F0895FB01DC0102C001900D9209
:1040E00041505040D8F70895DC01FC01672F7191D1
:1040F0007723E1F7329704C07C916D9370836291CE
:0C410000AE17BF07C8F30895F894FFCF76
:10410C002828282828282828A900020202020202AE
:10411C0002020220202020436F6E464C694354203B
:10412C002020202020202020202020202020202083
:10413C0020202046573A2043302E352048573A202D
:10414C00322E320062757A7A65722064697361620C
:10415C006C65640062757A7A657220656E61626C5A
:04416C006564000086
:00000001FF
