S0100000436F6E464C6943542E7372656362
S11300000C9422030C943F030C943F030C943F0381
S11300100C943F030C943F030C943F030C943F0354
S11300200C943F030C943F030C943F030C943F0344
S11300300C943F030C943F030C948A1E0C943F03CE
S11300400C94A61D0C94DC1D0C94161E0C94501ECE
S11300500C94BE1E0C943F030C943F030C943F037A
S11300600C943F030C943F030C943F030C943F0304
S11300700C9452170C9410170C943F030C943F03E8
S11300800C943F030C943F030C943F030C943F03E4
S11300900C943F030C943F030C943F030C943F03D4
S11300A00C943F030C943F030C943F030C943F03C4
S11300B00C943F030C943F030C943F030C943F03B4
S11300C00C943F030C943F030C943F030C943F03A4
S11300D00C943F030C943F030C943F030C943F0394
S11300E00C943F030C943F030C943F030C943F0384
S11300F00C943F030C943F030C943F030C943F0374
S11301000C943F030C943F030C943F030C943F0363
S11301100C943F030C943F030C943F030C943F0353
S11301200C943F030C943F030C943F030C943F0343
S11301300C943F030C943F030C943F030C943F0333
S11301400C943F030C943F030C943F030C943F0323
S11301500C943F030C943F030C943F030C943F0313
S11301600C943F030C943F030C943F030C943F0303
S11301700C943F030C943F039103D503FB03480401
S11301808704BA041905040D130F130F130F130F6B
S1130190130F130F130F130F130F270D430D5F0DC1
S11301A07B0D130F130F130F130F130F130F370DB3
S11301B0510D6D0D890D130F130F130F130F130F23
S11301C01B0D970D130F130F130F130F130F130F93
S11301D0130F130FA40DAF0D130F130F130F130FE2
S11301E0130F130F130F130F130FBF0D130F130F51
S11301F0130F130F130F130F130F130F130F130FEB
S1130200130F130F130F130F130F130F130F130FDA
S1130210DB0D030E190E510E670E7D0E930EA90E03
S1130220D40EE50EF60E050F230F490843114908B5
S113023049084908490849084908490849087611FC
S1130240C3111612661249084908490849084908A1
S113025049089B11EE113E128E12490849084908BB
S1130260490849084908B612DE12EB124908490840
S113027049084908490849084908490849084908F2
S11302804908490849084908490849084908171309
S113029049084908490849084908490849084908D2
S11302A049084908490849084908490849084908C2
S11302B04908490859139B13D01305143A146F14B1
S11302C0A414D9141B152B1556158115E51EEA1E09
S11302D0EF1EF41EF91EFE1E031F081F64320D0DCF
S11302E0000000000000000000000000000000000A
S11302F000000000000000000000000000313A206F
S1130300C501000052504D2020C6010025323A207C
S1130310C502000052504D2020C6020025333A2069
S1130320C503000052504D2020C6030025C0010023
S11303300020F24320C004000020F24320C0020049
S11303400020F24320C005000020F24320C0030037
S11303500020F24320C006000020F2432020202089
S11303602020202020202020202020202020202089
S11303702020202020202020202020202020202079
S11303802020202020202020202020202020202069
S11303902020202020202020202020202020202059
S11303A02020202020202020202020202020202049
S11303B02020202020202020202020202020202039
S11303C02020202020202020202020202020202029
S11303D02020202020202020202020202020202019
S11303E02020202020202020202020202020202009
S11303F0202020202020202020202020A9000000D0
S1130400000000646464A0A0A0A0A0A0A0A0FAFAC8
S1130410FAFAFAFAFAFAFAFAFAFAFAFAFAFAFAFA38
S1130420FAFAFAFAFAFAFFFFFFFFFFFFFFFFFFFFF6
S1130430FFFFFFFFFFFFFFFFFFFFFFFFFFFF642141
S11304400600000AC7C7C7C7C7C7C7C7C7C7C7C744
S1130450C7C7C7C7C7C7C7C7C7C7C7C7C7C7C7C728
S1130460C7C7C7C7C7C7C7C7C7C7C7C7C7C5C3C124
S1130470BFBDBBB9B7B6B4B3B1AFAEACABAAA8A756
S1130480A6A4A3A2A19F9E9D9C9B9A99989695949D
S113049093929191908F8E8D8C8B8A89898887868F
S11304A085858483828181807F7F7E7D7C7C7B7A4D
S11304B07A797878777776757574737372727171E7
S11304C0706F6F6E6E6D6D6C6C6B6B6A6A69696868
S11304D068676766666565646463636262626161D6
S11304E060605F5F5E5E5E5D5D5C5C5C5B5B5A5A38
S11304F05A5959585858575757565655555554548C
S1130500545353535252525151515050504F4F4FD4
S11305104E4E4E4D4D4D4C4C4C4B4B4B4A4A4A4A19
S11305204949494848484747474746464645454557
S1130530454444444443434342424242414141418D
S1130540404040403F3F3F3F3E3E3E3E3D3D3D3DBF
S11305503C3C3C3C3B3B3B3B3A3A3A3A39393939EF
S1130560393838383837373737363636363635351A
S11305703535353434343433333333333232323241
S113058032313131313130303030302F2F2F2F2F65
S11305902E2E2E2E2E2D2D2D2D2D2C2C2C2C2C2B89
S11305A02B2B2B2B2B2A2A2A2A2A292929292929A8
S11305B028282828282727272727272626262626C7
S11305C026252525252524242424242423232323E4
S11305D023232222222222222121212121212120FE
S11305E020202020201F1F1F1F1F1F1E1E1E1E1E17
S11305F01E1E1D1D1D1D1D1D1C1C1C1C1C1C1C1B2E
S11306001B1B1B1B1B1A1A1A1A1A1A1A1919191945
S11306101919191818181818181817171717171759
S1130620171616161616161615151515151515146E
S11306301414141414141413131313131313121281
S11306401212121211241FBECFEFCDBFDFE2DEBFA4
S113065010E2A0E0B0E2E8EBF0E402C005900D92F5
S1130660A436B107D9F722E2A4E6B0E201C01D9294
S1130670A030B207E1F70E94A7060C945A200C940C
S113068000000E94631608950E949B1608952F92FD
S11306903F924F925F927F928F929F92AF92BF92BE
S11306A0CF92DF92EF92FF920F931F93CF93DF933A
S11306B0CDB7DEB72A97CDBFDEBF5B012A01190192
S11306C0E986FA86F82E84E08F1518F46894FF24DE
S11306D0F2F880E00E948E1620E3F29E702C112422
S11306E08F2D90E00196289F7001299FF00C112412
S11306F0872D90E08E159F050CF0E6C1272D30E084
S1130700F501E20FF31F8081482F50E0FA01E05C0D
S1130710F109E730F10508F0CEC1E454FF4F0C9421
S1130720991FF501E20FF31F81818150883108F090
S113073080E0F201E80FF11D9080ECED9E120DC0F7
S11307408EE60E9495168EE20E94951683E60E941C
S113075095168EE20E94951625C04AE0BE016F5F91
S11307607F4F892D869590E00E94C21FF3E1F91511
S113077038F080E20E94951689810E94951606C081
S113078089810E9495168A810E9495168CE20E94A6
S1130790951690FE04C085E30E94951603C080E37D
S11307A00E94951683E0780E88C1F501E20FF31FCD
S11307B081818150833008F080E0F101E80FF11D60
S11307C090804AE0BE016F5F7F4F892D90E00E94C8
S11307D0C21FE9E0E91538F080E30E94951689818B
S11307E00E94951606C089810E9495168A810E94EE
S11307F09516739462C1F801808091804AE0BE012D
S11308006F5F7F4FC4010E94C21FFAE08F169104EC
S113081068F480E20E94951680E20E94951680E2B8
S11308200E94951689810E9495162FC084E6881629
S1130830910468F480E20E94951680E20E94951665
S113084089810E9495168A810E9495161EC0E8EE41
S11308508E16E3E09E0668F480E20E949516898174
S11308600E9495168A810E9495168B810E94951686
S11308700CC089810E9495168A810E9495168B81ED
S11308800E9495168C810E949516F3E07F0E15C187
S1130890F501E20FF31FE1818FEF8E0F833008F033
S11308A0E1E0F0E0EE0FFF1FE00FF11F8080918088
S11308B04AE0BE016F5F7F4FC4010E94C21F8AE0FD
S11308C08816910450F480E20E94951680E20E94FA
S11308D0951689810E94951617C0E4E68E16910438
S11308E050F480E20E94951689810E9495168A81AF
S11308F00E94951609C089810E9495168A810E94DA
S113090095168B810E94951673947394D6C0E985CD
S1130910FA85808091804AE0BE016F5F7F4FC401F9
S11309200E94C21FFAE08F16910450F480E20E94E4
S1130930951680E20E94951689810E94951617C02B
S113094084E68816910450F480E20E949516898109
S11309500E9495168A810E94951609C089810E9479
S113096095168A810E9495168B810E949516739420
S11309707394A3C0F501E20FF31F81818150843089
S113098008F080E090E0FC01EE0FFF1FEE0FFF1F68
S11309908E0F9F1FF601E80FF91F808091804AE0B7
S11309A0BE016F5F7F4FC4010E94C21FEAE08E1632
S11309B0910468F480E20E94951680E20E949516E4
S11309C080E20E94951689810E9495162FC0F4E654
S11309D08F16910468F480E20E94951680E20E94CA
S11309E0951689810E9495168A810E9495161EC0CB
S11309F088EE881683E0980668F480E20E949516D3
S1130A0089810E9495168A810E9495168B810E9485
S1130A1095160CC089810E9495168A810E949516AC
S1130A208B810E9495168C810E949516E3E07E0EC0
S1130A3044C0F501E20FF31F81818150843008F036
S1130A4080E090E0FC01EE0FFF1FEE0FFF1F8E0F02
S1130A509F1FF601E80FF91F92804AE0BE016F5F05
S1130A607F4F892D90E00E94C21FF9E0F91550F0E4
S1130A7080E20E94951680E20E94951689810E9468
S1130A80951616C083E6891550F080E20E949516EB
S1130A9089810E9495168A810E94951609C08981D0
S1130AA00E9495168A810E9495168B810E94951644
S1130AB07394739402C00E9495167394872D90E0EA
S1130AC08E159F050CF41ACE2A96CDBFDEBFDF919A
S1130AD0CF911F910F91FF90EF90DF90CF90BF9037
S1130AE0AF909F908F907F905F904F903F902F900A
S1130AF008950F931F93CF93DF93C62F072F182FBB
S1130B00D92F80E00E948E16CC2389F18FE60E94B3
S1130B10951686E70E94951685E60E94951682E74B
S1130B200E94951680E20E94951684E70E9495160D
S1130B3085E60E9495168DE60E94951680E70E9430
S1130B40951685E60E94951682E70E94951681E621
S1130B500E94951684E70E94951685E70E949516D3
S1130B6082E70E94951685E60E94951606C0C0E1AC
S1130B7080E20E949516C150D9F7002389F180E2E2
S1130B800E94951680E20E94951686E60E949516AC
S1130B9081E60E9495168EE60E94951680E20E94D8
S1130BA0951682E60E9495168CE60E9495168FE6AD
S1130BB00E94951683E60E9495168BE60E94951670
S1130BC085E60E94951684E60E94951680E20E94AE
S1130BD0951680E20E94951680E20E94951606C042
S1130BE0C0E180E20E949516C150D9F7212F3D2F14
S1130BF0232B89F180E20E94951680E20E949516CB
S1130C008CE60E9495168FE60E94951687E70E944F
S1130C10951680E20E94951686E60E9495168CE64B
S1130C200E9495168FE60E94951687E70E949516F6
S1130C3080E20E94951682E70E94951681E60E9442
S1130C40951684E70E94951685E60E94951680E223
S1130C500E94951606C0C0E180E20E949516C1501C
S1130C60D9F7DF91CF911F910F910895AF92BF9261
S1130C70CF92DF92EF92FF920F931F93CF93DF9364
S1130C808C01FC0101900020E9F731977F01E81AFB
S1130C90F90ABE2C80E00E948E1680E38E1598F12E
S1130CA0C0E3D0E0CE018E1991097C016C011AF4E5
S1130CB09FEFC91AD90AD594C794DC2DCC2039F0FA
S1130CC0C0E080E20E949516CF5FCD17D0F3BB2021
S1130CD051F0A02EC02FD12F89910E9495168C2FF0
S1130CE08A198B15C8F3E701CC19D1091C161D0606
S1130CF054F410E080E20E9495161F5F812F90E06B
S1130D008C179D07BCF3DF91CF911F910F91FF903A
S1130D10EF90DF90CF90BF90AF900895E0E5F0E0C2
S1130D20808186608083E1E5F0E0808181FFFDCFF2
S1130D30E1E5F0E0808182FFFDCF1092560081E072
S1130D408093600098ED94BF809340000895CF9302
S1130D50DF93CDB7DEB7C657D240CDBFDEBF0E940A
S1130D608E060E94CE160E94CF170E94621D0E941A
S1130D70741C0E944103E2EAF0E080818760808372
S1130D8078941EA21FA2C45EDE4F1882CC51D140BB
S1130D90C35EDE4F1882CD51D140C25EDE4F188251
S1130DA0CE51D140FE01E15EFE4F88E0DF011D928D
S1130DB08A95E9F78AE092E00E94F31F813091401E
S1130DC009F46EC0E12CF12C15C0F801E25FFB4F71
S1130DD06491C601800F911F0E9409200F5F1F4F6D
S1130DE00633110591F7E6E3EE0EF11CF8EDEF166C
S1130DF0F10439F000E010E097012E5C3E4F6901E8
S1130E00E4CF00E010E0F801EA5FFB4F6491C80111
S1130E10865D9E4F0E9409200F5F1F4F0830110509
S1130E2091F700E010E0F801EE5FFB4F6491C80118
S1130E308A5D9E4F0E9409200F5F1F4F04301105E9
S1130E4091F700E010E0F801E250FC4F6491C80112
S1130E508E5D9E4F0E9409200F5F1F4F04301105C5
S1130E6091F7ECEFF3E06591749180E291E00E94D8
S1130E702C2000E010E0F801E452FD4F6491C80119
S1130E80805090400E9409200F5F1F4F003231E0D4
S1130E90130789F761E071E08AE092E00E942C2058
S1130EA080E291E00E94F31FCF58DD4F888399833D
S1130EB0C157D2400E944A1F48ED50E062E371E0FE
S1130EC0CE0188960E94E71F48E050E06AE271E094
S1130ED0CE014E960E94E71F44E050E066E271E0C6
S1130EE0CE018C5E9E4F0E94E71F44E050E062E218
S1130EF071E0CE01885E9E4F0E94E71F40E251E000
S1130F0060E070E0CE01895D9E4F0E94E71FC95DDD
S1130F10DE4F6881C752D14087E00E94CD1EC85D74
S1130F20DE4F8881C852D1400E944403C75DDE4F22
S1130F304881C952D140CB59DD4F4883C556D24070
S1130F4088E290E08C0F9D1FC296C759DD4F8883BD
S1130F509983C956D24088529F4FDE01AC5FBE4F81
S1130F60C759DD4FE881F981C956D24041E0BF013C
S1130F709D0121503109FB015081F90150834C93AB
S1130F806A5C7F4F15966817790791F783E190E2C1
S1130F900E943606F1E0C059DD4FF883C057D240B5
S1130FA0C959DD4F1882C756D240C159DD4F188246
S1130FB0CF56D2402AE0C859DD4F2883C856D240C4
S1130FC0CA59DD4F1882C656D240C15ADD4F188225
S1130FD01982CF55D24035E0C25ADD4F3883CE5501
S1130FE0D240C55ADD4F1882CB55D240CE019395DD
S1130FF0C95BDD4F88839983C754D240A8E2B0E02F
S1131000AC0FBD1FD496C559DD4FA883B983CB5609
S1131010D240FC013296C359DD4FE883F983CD56A3
S1131020D2409E012A5F3F4FC75BDD4F288339833F
S1131030C954D2400F2EF4E62F2E312CF02DC75B6D
S1131040DD4F3881C954D240C75ADD4F3883C95562
S1131050D240C65BDD4F4881CA54D240C65ADD4FE8
S11310604883CA55D24087E291E08C0F9D1F819638
S1131070CD58DD4F88839983C357D240A4E1B1E0B2
S1131080AC0FBD1F1196CB58DD4FA883B983C5574C
S1131090D240C25ADD4FB881CE55D240B53010F49B
S11310A00C94AC15FE017E96DE015696CE01869612
S11310B021912D93E817F907D9F70C94AC15CD5A63
S11310C0DD4F68827982C355D240F3013197808124
S11310D0882309F4B8C0C75ADD4FE881C955D24006
S11310E0C65ADD4FF881CA55D24093012C513109BB
S11310F0830104531109912CC95ADD4FC882D98246
S1131100C755D240D82C8190D8014D918D018416B9
S1131110B8F0D9016C91681510F40C942B1650E0BA
S113112070E0641B750BC1010E94631F841A869EC4
S1131130802C1124981408F4982C2F5F3F4F0CC076
S1131140D9018D919D01881538F4A11002C09B2C02
S113115003C0DD24D3949B2CEE15FF05A1F68D2C42
S1131160C95ADD4FC880D980C755D240F201808169
S11311708130D9F118F08230E1F199C0D6011C9286
S1131180CD5ADD4FA881B981C355D2408C918823B3
S1131190D9F0CF5ADD4FA881B981C155D2408C9185
S11311A0891508F084C0B1E0B083C35BDD4FE881EA
S11311B0F981CD54D2408081C15BDD4FE881F98152
S11311C0CF54D240808373C021E02083C35BDD4FC2
S11311D0E881F981CD54D2408081C15BDD4FE88143
S11311E0F981CF54D240808362C0E4E6D601EC9307
S11311F05EC091100AC0CD5ADD4FA881B981C35594
S1131200D2408C91813009F41082CD5ADD4FE881AF
S1131210F981C355D24033974081C101841B9109A0
S1131220989E9001999E300D1124369527953695F8
S11312302795ABE7B4E10E949F1F96958795480FC9
S1131240F601408334C0F2018081813001F118F04D
S1131250823009F12CC0D6011C92C55BDD4FA881F8
S1131260B981CB54D2408C91882309F1B1E0B08389
S1131270C35BDD4FE881F981CD54D2408081C15BED
S1131280DD4FE881F981CF54D240808310C0E4E679
S1131290D601EC930CC0C55BDD4FA881B981CB545A
S11312A0D2408C91D6018C93811101C01082B5E09B
S11312B04B0E511CC35BDD4FE881F981CD54D24004
S11312C0F696C35BDD4FE883F983CD54D240C15B0E
S11312D0DD4FE881F981CF54D2403596C15BDD4FB3
S11312E0E883F983CF54D240F5E0CF0ED11CCF5A16
S11312F0DD4FE881F981C155D240F696CF5ADD4FD2
S1131300E883F983C155D240C55BDD4FE881F9819B
S1131310CB54D240F696C55BDD4FE883F983CB54BA
S1131320D240F6E36F0E711CCB5ADD4FE881F98190
S1131330C555D2404E165F0609F0C1CE8E010C5F32
S11313401E4F912CF12CF801329760818F2D0E9451
S1131350CD1E8F2D0E940D1FF80134978083918339
S1131360D8012C91223071F4892B61F4C75EDE4FD1
S11313708881C951D140882329F0B3E0FB1641F09C
S113138099249394F3940B5F1F4FE4E0FE12DBCF98
S11313900E942F1F8EA39FA351E040E0C65EDE4F44
S11313A028813981CA51D1408217930708F050E04F
S11313B0A52EB42ECC5EDE4F8881C451D140882343
S11313C019F08130D1F0AAC0CB5EDE4F6881C551DF
S11313D0D14084E00E94CD1ECA5EDE4F6881C651B2
S11313E0D14085E00E94CD1EC95EDE4F6881C751A1
S11313F0D14086E00E94CD1EA4C0C15ADD4F288191
S11314003981CF55D2402436310588F4C15ADD4F95
S11314106881CF55D24084E00E94CD1E60E085E013
S11314200E94CD1E60E086E00E94CD1E8AC0C15A93
S1131430DD4F88819981CF55D240883C910570F465
S113144068EC681B84E00E94CD1E60E085E00E9489
S1131450CD1E60E086E00E94CD1E73C0C15ADD4FF0
S1131460A881B981CF55D240AC32E1E0BE0770F417
S11314706A2F685C85E00E94CD1E60E084E00E94D3
S1131480CD1E60E086E00E94CD1E5BC0C15ADD4FD8
S113149028813981CF55D240203941E0340770F496
S11314A060E9621B85E00E94CD1E60E084E00E943A
S11314B0CD1E60E086E00E94CD1E43C0C15ADD4FC0
S11314C088819981CF55D240843FA1E09A0770F476
S11314D0682F605986E00E94CD1E60E084E00E947F
S11314E0CD1E60E085E00E94CD1E2BC0C15ADD4FA9
S11314F0E881F981CF55D240E83522E0F207D8F4EB
S113150068E56E1B86E00E94CD1E60E084E00E94C8
S1131510CD1E60E085E00E94CD1E13C060E086E031
S11315200E94CD1E60E085E00E94CD1E64E684E04A
S11315300E94CD1E06C0C15ADD4F18821982CF55B4
S1131540D2400E944F1F882309F4C0C080E091E07C
S11315508C0F9D1F4796DE01AC5FBE4FC45ADD4F12
S1131560E881F981CC55D24052E0BD019F01408110
S1131570423010F041504083D9014C91413019F46C
S11315801C92DB015C9335966B5F7F4FE817F9077C
S113159069F7C25ADD4FB881CE55D240BF3F31F012
S11315A0BF5FC25ADD4FB883CE55D240911005C0FB
S11315B0A114B10411F4882059F0C059DD4FE88119
S11315C0C057D240EE2321F081E08093E70703C0A7
S11315D081E08093E607CB59DD4FF881C556D240B0
S11315E0F150CB59DD4FF883C556D240F1112AC0D2
S11315F0CA59DD4F2881C656D2402F5FCA59DD4FE4
S11316002883C656D240E7E2F1E0EC0FFD1FE20F5B
S1131610F11D8281811105C0CA59DD4F1882C65659
S1131620D240E7E2F1E0EC0FFD1FCA59DD4F4881DB
S1131630C656D240E40FF11D8281CB59DD4F888319
S1131640C556D240C859DD4F9881C856D240911131
S113165032C0911029C0A114B10431F5811024C005
S1131660DE01B3956D01FE01B6967F018E01015E28
S11316701E4F9E01245E3E4FC75ADD4F4881C95517
S1131680D240C65ADD4F5881CA55D240CD58DD4F9D
S113169068817981C357D240CA59DD4F8881C656C3
S11316A0D2400E94470312C0682D792D8A2D9B2DAC
S11316B00E9479050BC0C859DD4FF881C856D24045
S11316C0F150C859DD4FF883C856D2400E94591FC3
S11316D0882309F484C17E0126E1E20EF11CC75A75
S11316E0DD4F0881C955D240C65ADD4F1881CA550D
S11316F0D240802FC75BDD4F3881C954D240831B51
S11317000E94BC1CD8018D938D01AE15BF0589F7CD
S1131710C15ADD4FE881F981CF55D2403196C15A83
S1131720DD4FE883F983CF55D2408091680684FF6A
S113173002C00C941D16C159DD4FF881CF56D2401A
S1131740FF3F91F1FF5FC159DD4FF883CF56D2407F
S1131750F23051F5C059DD4F2881C057D2402223C1
S113176099F081E08093E60784E490E20E943606D3
S1131770C059DD4F1882C057D24032E0C859DD4FFE
S11317803883C856D24010C084E590E20E943606E1
S113179041E0C059DD4F4883C057D24082E0C85968
S11317A0DD4F8883C856D2408091280680FF02C04E
S11317B00C942416C959DD4F9881C756D2409F3FD7
S11317C041F09F5FC959DD4F9883C756D2409A3084
S11317D049F0C959DD4FA881C756D240A13009F05C
S11317E060C006C0B1E0C959DD4FB883C756D240C6
S11317F0CA59DD4FE881C656D240EF5FCA59DD4F62
S1131800E883C656D240E7E2F1E0EC0FFD1FCA5967
S1131810DD4F2881C656D240E20FF11D828181112D
S113182005C0CA59DD4F1882C656D240E7E2F1E03E
S1131830EC0FFD1FCA59DD4F3881C656D240E30F65
S1131840F11D4281CB59DD4F4883C556D2409110DA
S113185028C0A114B10429F5811023C0CE019395A9
S11318606C01DE0196967D018E01015E1E4F9E0184
S1131870245E3E4FC75ADD4F4881C955D240C65AEF
S1131880DD4F5881CA55D240CD58DD4F68817981EA
S1131890C357D240CA59DD4F8881C656D2400E94F0
S11318A04703C55ADD4FB881CB55D240BF5FC55AF7
S11318B0DD4FB883CB55D2401982B33009F44EC002
S11318C028F4B13079F0B23051F189C0C55ADD4FF6
S11318D0E881CB55D240E43009F44DC0E53009F439
S11318E060C07DC08EE18A83C75ADD4F0881C95527
S11318F0D240C65ADD4F1881CA55D240F12CF39418
S1131900FB82D8018D918D0190E08C839D83CE0163
S113191001960E948519B8E1FB12F1CF60C082E301
S11319208A8381E08B83882D90E08C839D83CE0114
S113193001960E94851982E08B83892D90E08C8327
S11319409D83CE0101960E94851983E08B83AC822E
S1131950BD82CE0101960E94851941C08CE38A8321
S113196081E08B838EA19FA18C839D83CE01019600
S11319700E94851934C08DE38A838E011395F12C5E
S1131980F394FB82F801808191818C839D83CE0145
S113199001960E9485190B5F1F4FF3E0FF12F0CFF1
S11319A01EC08EE38A83C359DD4F08811981CD5649
S11319B0D240F12CF394FB82D8018C9190E08C837B
S11319C09D83CE0101960E9485190B5F1F4FB4E0E1
S11319D0FB12F0CFC55ADD4F1882CB55D240CE0151
S11319E001960E94DF17811154CB898181111BC29A
S11319F08A8190E0FC013197E135F10508F013C2CA
S1131A00ED53FF4F0C94991F8B818A3A09F041CB17
S1131A108C819D818535910509F03BCBF89488ED47
S1131A2084BF81E080937900EFE3FFE13197F1F720
S1131A3000C00000F8C18B81FE01E80FF11D8C810C
S1131A408583C25ADD4F1882CE55D240ECC18B81BA
S1131A5090E001976C81E8E2F0E0EC0FFD1FE80FE5
S1131A60F91F60838E5C9E4F0E94F81FDCC18B813E
S1131A7090E06C81FE01E80FF91F67AF875B9E4F12
S1131A800E94F81FD0C18B8190E06C81FE01E80FA9
S1131A90F91FE35AFF4F608389599E4F0E94F81F34
S1131AA0C2C18B8190E06C81FE01E80FF91FEB58F5
S1131AB0FF4F608381589E4F0E94F81FB4C18B81F1
S1131AC090E06C81FE01E80FF91FED56FF4F608333
S1131AD083569E4F0E94F81FA6C18B8190E06C81B3
S1131AE0FE01E80FF91FE555FF4F60838B549E4FAD
S1131AF00E94F81F98C18B8190E06C81FE01E80F71
S1131B00F91FE753FF4F60838D529E4F0E94F81FC9
S1131B108AC18B8190E06C81FE01E80FF91FEF51BF
S1131B20FF4F608385519E4F0E94F81F7CC18B81BB
S1131B3090E041976C81FE01E80FF91F668F865D86
S1131B409E4F0E94F81F6FC18B81ECE1F1E0EC0F16
S1131B50FD1FE80FF11D31978C81808364C1EB81F7
S1131B60F0E03197EE0FFF1F2FE131E02C0F3D1F06
S1131B70E20FF31F8C819D818083918354C18B81FB
S1131B80813059F46C81C85EDE4F6883C851D140FE
S1131B9082E291E00E94F81F46C1823009F079CABE
S1131BA06C81C75EDE4F6883C951D14083E291E006
S1131BB00E94F81F38C18B818130A9F48C819D81EA
S1131BC0CF58DD4F88839983C157D2400E944A1F62
S1131BD0CF58DD4F68817981C157D24080E291E0CE
S1131BE00E94032020C1823009F053CA6C817D8198
S1131BF0C65EDE4F68837983CA51D14084E291E0A6
S1131C000E94032010C12B8130E0215031096C81E6
S1131C1046E3429FC001439F900D1124FE01E80F4B
S1131C20F91FE85AFF4F60838E599E4F0E94F81F98
S1131C30FAC08C819D81009781F48B8190E001979B
S1131C4026E3289FF001299FF00D1124EC0FFD1FBE
S1131C50E65AFF4F81E080830FC02B8130E0215092
S1131C60310996E3929FF001939FF00D1124EC0F3C
S1131C70FD1FE65AFF4F80832B8130E0215031094C
S1131C8046E3429FC001439F900D1124FE01E80FDB
S1131C90F91FE65AFF4F60818C599E4F0E94F81F2E
S1131CA0C2C02B8130E0215031096C8146E3429F50
S1131CB0C001439F900D1124FE01E80FF91FE75A5C
S1131CC0FF4F60838D599E4F0E94F81FACC02B813B
S1131CD030E0215031096C8146E3429FC001439FAB
S1131CE0900D1124FE01E80FF91FE55AFF4F6083A0
S1131CF08B599E4F0E94F81F96C02B8130E02150D3
S1131D0031096C8146E3429FC001439F900D112429
S1131D10FE01E80FF91FE45AFF4F60838A599E4F72
S1131D200E94F81F80C02B8130E0215031096C8162
S1131D3046E3429FC001439F900D1124FE01E80F2A
S1131D40F91FE35AFF4F608389599E4F0E94F81F81
S1131D506AC08B81813099F46C81C95DDE4F6883E0
S1131D60C752D14087E00E94CD1EC95DDE4F688115
S1131D70C752D14080E090E00E94F81F54C08230E6
S1131D8009F087C98C81C85DDE4F8883C852D14071
S1131D900E944403C85DDE4F6881C852D14081E08F
S1131DA090E00E94F81F3FC06C81CC5EDE4F6883D8
S1131DB0C451D14086E291E00E94F81FC15ADD4F20
S1131DC018821982CF55D2402EC08B8190E0FC013D
S1131DD031976C81A4E1B1E0AC0FBD1FEA0FFB1F8A
S1131DE061838A5D9E4F0E94F81F1DC08B8190E025
S1131DF06C81E7E2F1E0EC0FFD1FE80FF91F60A32F
S1131E00805E9F4F0E94F81F0EC08B8190E06C8112
S1131E10E7E2F1E0EC0FFD1FE80FF91F61838F5F2C
S1131E209F4F0E94F81F8981813009F032C91982BD
S1131E308A8190E08235910508F02BC9FC01EC5EA3
S1131E40FE4F0C94991F8B81811123C912E01A83D0
S1131E5081E08B8385E090E08C839D83CE010196A5
S1131E600E9485191B8381E090E08C839D83CE01C1
S1131E7001960E948519FE01B8967F018F01085EC4
S1131E801F4F6F01F6E3CF0ED11C5E0126E7A20EB1
S1131E90B11C4E0134E9830E911C2E014CEA440E10
S1131EA0511CCE0186539F4FC35BDD4F88839983BA
S1131EB0CD54D240DE01AE51BF4FC55BDD4FA88388
S1131EC0B983CB54D240712C0F2EFBE06F2EF02D32
S1131ED06A8273947B82F70181917F0190E08C8305
S1131EE09D83CE0101960E948519F5E1FA83D801FC
S1131EF08D918D0190E08C839D83CE0101960E948B
S1131F008519BCE0BA83F60181916F0190E08C835E
S1131F109D83CE0101960E948519F6E1FA83D501CD
S1131F208D915D0190E08C839D83CE0101960E948A
S1131F308519BDE0BA83F40181914F0190E08C834F
S1131F409D83CE0101960E948519F7E1FA83D2019F
S1131F508D912D0190E08C839D83CE0101960E948A
S1131F608519BEE0BA83C35BDD4FE881F981CD54A6
S1131F70D2408191C35BDD4FE883F983CD54D240D5
S1131F8090E08C839D83CE0101960E948519F8E12F
S1131F90FA83C55BDD4FA881B981CB54D2408D91C2
S1131FA0C55BDD4FA883B983CB54D24090E08C83CA
S1131FB09D83CE0101960E948519B8E17B1288CFDA
S1131FC08FE18A838E01025E1F4F0F2EF1E1FF2EF7
S1131FD0F02DFB82F80181918F0190E08C839D8329
S1131FE0CE0101960E948519F394F9E1FF12F1CF15
S1131FF080E28A8381E08B830E94591D90E08C8368
S11320009D83CE0101960E94851981E28A8310E0A6
S11320100EC001E0010F0B83812F0E945C1D90E034
S11320208C839D83CE0101960E948519102F0E94F6
S1132030591D212F30E048E0849FC0011124281746
S113204039073CF383E38A8301E00B83C85EDE4FE8
S11320508881C851D14090E08C839D83CE01019644
S11320600E94851912E01B83C75EDE4F8881C95127
S1132070D14090E08C839D83CE0101960E94851906
S113208086E48A830B83CF58DD4F88819981C157B9
S1132090D2408C839D83CE0101960E9485191B83B7
S11320A0C65EDE4F88819981CA51D1408C839D835D
S11320B0CE0101960E948519CF59DD4F08811981FF
S11320C0C156D240F12C0F2EF7E49F2EF02D0F2E87
S11320D0F8E4AF2EF02D0F2EF9E4BF2EF02D0F2EC5
S11320E0FAE4CF2EF02D0F2EFBE4DF2EF02D0F2E71
S11320F0FCE4EF2EF02D9A82F394FB82F8013597DD
S1132100808190E08C839D83CE0101960E94851985
S1132110AA82F8013397808190E08C839D83CE015D
S113212001960E948519BA82F8013497808190E063
S11321308C839D83CE0101960E948519CA82F80181
S11321403297808190E08C839D83CE0101960E941A
S11321508519DA82F8013197808190E08C839D8320
S1132160CE0101960E948519EA82D8018C9190E0F3
S11321708C839D83CE0101960E9485190A5C1F4FB2
S1132180B4E0FB12B8CF8DE48A8311E01B83C95DF0
S1132190DE4F8881C752D14090E08C839D83CE016D
S11321A001960E94851982E08B83C85DDE4F888189
S11321B0C852D14090E08C839D83CE0101960E9449
S11321C085198EE48A831B83CC5EDE4F8881C451DB
S11321D0D14090E08C839D83CE0101960E948519A5
S11321E08FE48A83CB58DD4F08811981C557D240CB
S11321F0F12CF394FB82F80181918F0190E08C83A0
S11322009D83CE0101960E948519F3E0FF12F1CF60
S113221080E58A83CD58DD4F08811981C357D240A8
S1132220F12CF394FB82D8018D918D0190E08C8385
S11322309D83CE0101960E948519BFEFFB12F1CF59
S113224081E58A8307E211E00C0F1D1F0E5F1F4F0B
S1132250F12CF394FB82F80181918F0190E08C833F
S11322609D83CE0101960E948519FFE1FF12F1CFF3
S11322701A8281E08B831C821D82CE0101960E940A
S113228085190C9449088B81811116C081E08B83D8
S113229085E090E08C839D83CE0101960E94851990
S11322A082E08B8381E090E08C839D83CE01019654
S11322B00E9485190C944908813051F485E090E01E
S11322C08C839D83CE0101960E9485190C94490844
S11322D0823011F00C94490881E090E08C839D8356
S11322E0CE0101960E9485190C9449088B818111B5
S11322F015C08E01085D1F4FF12CF394FB82D801A9
S11323008D918D0190E08C839D83CE0101960E9476
S11323108519B8E1FB12F1CF0C944908FE01E80FCE
S1132320F11D87A190E08C839D83CE0101960E94CC
S113233085190C9449088B81811118C008E210E0BA
S11323400C0F1D1F085E1F4FF12CF394FB82F80144
S113235081918F0190E08C839D83CE0101960E9430
S11323608519F8E1FF12F1CF0C944908FE01E80F3A
S1132370F11D87AD90E08C839D83CE0101960E9470
S113238085190C9449088B81811118C008E210E06A
S11323900C0F1D1F0A5C1F4FF12CF394FB82D80114
S11323A08D918D0190E08C839D83CE0101960E94D6
S11323B08519B8E1FB12F1CF0C944908EDE5F0E082
S11323C0EC0FFD1FE80FF11D808190E08C839D834D
S11323D0CE0101960E9485190C9449088B818111C4
S11323E015C08E010A581F4FF12CF394FB82F8019B
S11323F081918F0190E08C839D83CE0101960E9490
S11324008519F8E1FF12F1CF0C944908E5E7F0E0F3
S1132410EC0FFD1FE80FF11D808190E08C839D83FC
S1132420CE0101960E9485190C9449088B81811173
S113243015C08E010C561F4FF12CF394FB82D8016A
S11324408D918D0190E08C839D83CE0101960E9435
S11324508519B8E1FB12F1CF0C944908E3E9F0E0E7
S1132460EC0FFD1FE80FF11D808190E08C839D83AC
S1132470CE0101960E9485190C9449088B81811123
S113248015C08E0104551F4FF12CF394FB82F80103
S113249081918F0190E08C839D83CE0101960E94EF
S11324A08519F8E1FF12F1CF0C944908EBEAF0E04A
S11324B0EC0FFD1FE80FF11D808190E08C839D835C
S11324C0CE0101960E9485190C9449088B818111D3
S11324D015C08E0106531F4FF12CF394FB82D801D3
S11324E08D918D0190E08C839D83CE0101960E9495
S11324F08519B8E1FB12F1CF0C944908E9ECF0E03E
S1132500EC0FFD1FE80FF11D808190E08C839D830B
S1132510CE0101960E9485190C9449088B81811182
S113252015C08E010E511F4FF12CF394FB82F8015C
S113253081918F0190E08C839D83CE0101960E944E
S11325408519F8E1FF12F1CF0C944908E1EEF0E0AF
S1132550EC0FFD1FE80FF11D808190E08C839D83BB
S1132560CE0101960E9485190C9449088B81811132
S113257018C08E01025E1F4F0F2EF1E1FF2EF02DC9
S1132580FB82D8018D918D0190E08C839D83CE01D7
S113259001960E948519F394B9E1FB12F1CF0C94D2
S11325A04908FE01E80FF11D858590E08C839D8329
S11325B0CE0101960E9485190C94490881E08B8311
S11325C00E94591D90E08C839D83CE0101960E9448
S11325D085190C9449088B8181111DC010E00EC02F
S11325E001E0010F0B83812F0E945C1D90E08C831E
S11325F09D83CE0101960E948519102F0E94591DBA
S1132600212F30E0E8E08E9FC001112428173907FC
S11326103CF30C94490881500E945C1D90E08C832B
S11326209D83CE0101960E9485190C9449088B81E3
S1132630813019F120F0823071F10C94490881E065
S11326408B83C85EDE4F8881C851D14090E08C8373
S11326509D83CE0101960E94851982E08B83C75E1B
S1132660DE4F8881C951D14090E08C839D83CE0197
S113267001960E9485190C944908C85EDE4F888132
S1132680C851D14090E08C839D83CE0101960E9475
S113269085190C944908C75EDE4F8881C951D14021
S11326A090E08C839D83CE0101960E9485190C9441
S11326B049088B81813019F120F0823071F10C943A
S11326C0490881E08B83CF58DD4F28813981C15778
S11326D0D2402C833D83CE0101960E94851982E06D
S11326E08B83C65EDE4F88819981CA51D1408C8329
S11326F09D83CE0101960E9485190C944908CF58F8
S1132700DD4F88819981C157D2408C839D83CE014E
S113271001960E9485190C944908C65EDE4F888193
S11327209981CA51D1408C839D83CE0101960E9428
S113273085190C9449088B81811119C0CD59DD4F3D
S113274008811981C356D240F12CF394FB82D8013D
S11327508C9190E08C839D83CE0101960E94851913
S11327600A5C1F4FB4E0FB12F0CF0C94490890E0D0
S1132770019726E3289FF001299FF00D112421E001
S113278030E02C0F3D1FE20FF31FE95AFF4F808109
S113279090E08C839D83C9010E9485190C9449089B
S11327A08B81811119C0C759DD4F08811981C95620
S11327B0D240F12CF394FB82D8018C9190E08C836D
S11327C09D83CE0101960E9485190A5C1F4FB4E0D7
S11327D0FB12F0CF0C94490890E0019726E3289F60
S11327E0F001299FF00D112421E030E02C0F3D1F52
S11327F0E20FF31FE75AFF4F808190E08C839D83A3
S1132800C9010E9485190C9449088B81811119C052
S113281008E210E00C0F1D1F0F5C1F4FF12CF39406
S1132820FB82D8018C9190E08C839D83CE0101962C
S11328300E9485190A5C1F4FB4E0FB12F0CF0C9480
S1132840490890E0019726E3289FF001299FF00DA5
S1132850112421E030E02C0F3D1FE20FF31FE85A52
S1132860FF4F808190E08C839D83C9010E9485196C
S11328700C9449088B81811119C008E210E00C0FF7
S11328801D1F0D5C1F4FF12CF394FB82D8018C911A
S113289090E08C839D83CE0101960E9485190A5C89
S11328A01F4FB4E0FB12F0CF0C94490890E001975D
S11328B026E3289FF001299FF00D112421E030E048
S11328C02C0F3D1FE20FF31FE65AFF4F808190E06B
S11328D08C839D83C9010E9485190C9449088B81BE
S11328E0811119C0C559DD4F08811981CB56D240D9
S11328F0F12CF394FB82D8018C9190E08C839D831E
S1132900CE0101960E9485190A5C1F4FB4E0FB12A8
S1132910F0CF0C94490890E0019726E3289FF0013A
S1132920299FF00D112421E030E02C0F3D1FE20F10
S1132930F31FE55AFF4F808190E08C839D83C9018A
S11329400E9485190C9449088B81811119C0CF59B3
S1132950DD4F08811981C156D240F12CF394FB82DA
S1132960D8018C9190E08C839D83CE0101960E94C6
S113297085190A5C1F4FB4E0FB12F0CF0C94490890
S113298090E0019726E3289FF001299FF00D112480
S113299021E030E02C0F3D1FE20FF31FE45AFF4FFC
S11329A0808190E08C839D83C9010E9485190C94D9
S11329B049088B81813019F120F0823071F10C9437
S11329C0490881E08B83C95DDE4F8881C752D140BD
S11329D090E08C839D83CE0101960E94851982E04C
S11329E08B83C85DDE4F8881C852D14090E08C83D0
S11329F09D83CE0101960E9485190C944908C95DF6
S1132A00DE4F8881C752D14090E08C839D83CE01F4
S1132A1001960E9485190C944908C85DDE4F88818F
S1132A20C852D14090E08C839D83CE0101960E94D0
S1132A3085190C94490881E08B83CC5EDE4F888134
S1132A40C451D14090E08C839D83CE0101960E94B5
S1132A5085190C9449088B81811118C0CB58DD4F1E
S1132A6008811981C557D240F12CF394FB82D80117
S1132A708D918D0190E08C839D83CE0101960E94FF
S1132A808519B3E0FB12F1CF0C944908E4E1F1E0BD
S1132A90EC0FFD1FE80FF11D808190E08C839D8376
S1132AA0CE0101960E9485190C9449088B818111ED
S1132AB018C0CD58DD4F08811981C357D240F12C7D
S1132AC0F394FB82F80181918F0190E08C839D83C4
S1132AD0CE0101960E948519FFEFFF12F1CF0C94ED
S1132AE04908E7E2F1E0EC0FFD1FE80FF11D80A1BA
S1132AF090E08C839D83CE0101960E9485190C94ED
S1132B0049088B81811118C007E211E00C0F1D1FC9
S1132B100E5F1F4FF12CF394FB82D8018D918D0130
S1132B2090E08C839D83CE0101960E948519BFE1BC
S1132B30FB12F1CF0C944908E7E2F1E0EC0FFD1F22
S1132B40E80FF11D818190E08C839D83CE01019675
S1132B500E9485190C944908C85EDE4FA880C851AC
S1132B60D140E0E0F1E0EC0FFD1F3396C45ADD4F95
S1132B70E883F983CC55D24028E230E02C0F3D1F86
S1132B802B5C3F4FCF59DD4F28833983C156D24048
S1132B9088E290E08C0F9D1FC096CD59DD4F88834D
S1132BA09983C356D240E0E0F1E0EC0FFD1F789624
S1132BB0CB5ADD4FE883F983C555D240C559DD4F63
S1132BC068807980CB56D240C55BDD4F888399837A
S1132BD0CB54D240CF5ADD4F28833983C155D240DC
S1132BE0C359DD4FC880D980CD56D240C45ADD4F79
S1132BF028813981CC55D240C15BDD4F288339838C
S1132C00CF54D240C759DD4F88819981C956D240EB
S1132C10C35BDD4F88839983CD54D240DE01AC5F22
S1132C20BE4F2D01812C7E01BEE1EB0EF11C0F2E57
S1132C30F4E6BF2EF02D0C945F08C159DD4F1882C5
S1132C40CF56D2400C94D40BC959DD4F1882C756C5
S1132C50D2400C94E90B2F5F3F4F0C94A508E4E499
S1132C60F6E09081937C90832081982F9695969599
S1132C709C73922B908394E0909325069AE09A9506
S1132C80F1F700C094E0909326069AE09A95F1F744
S1132C9000C09081937C90839081880F880F8C73FF
S1132CA0892B808384E0809325068AE08A95F1F756
S1132CB000C084E08093260687ED90E00197F1F749
S1132CC000C00000089588E08093260689E20E94EF
S1132CD02F1689E20E942F1689E20E942F1685E1A1
S1132CE00E942F1685E50E942F168EE60E942F164D
S1132CF082E70E942F1688E20E942F168CE00E9421
S1132D002F1681E00E942F168FEB91E20197F1F7C5
S1132D1000C0000086E00E942F16089598E090936A
S1132D20260680680E942F16089598E09093250641
S1132D300E942F160895CF93DF9300D0CDB7DEB74E
S1132D402FE3829FC00111249C0136952795369567
S1132D502795ABE7B4E10E949F1F96958795803431
S1132D6008F08FE3982F9F70998382958F708A83E0
S1132D7088E08093260689E20E942F168A81846562
S1132D800E942F16898180670E942F1688E20E9474
S1132D902F160F900F90DF91CF9108951092000697
S1132DA08CE08093200628E12093300682E0809313
S1132DB031069CEB909340069FE09093600620932D
S1132DC074068093750680937606809377069093B5
S1132DD0800681E08093E0070895CF93DF93662314
S1132DE0E1F0282FA82FB92FE3EBF8E080818C7F46
S1132DF08083C0916621D0E0C859DE4D8D918883CF
S1132E00809166218F5F8F738093662180818160BA
S1132E1080838A2F821B861748F3DF91CF91089510
S1132E201F920F920FB60F9211248F939F93EF93DB
S1132E30FF93E0916721F0E0E859FE4D8081809393
S1132E40B008809167218F5F8F7380936721909181
S1132E50672180916621981305C0E3EBF8E0808137
S1132E608C7F8083FF91EF919F918F910F900FBE84
S1132E700F901F9018958091B308837079F090910A
S1132E80662180916721981759F09091662180916D
S1132E906721981B9F7380E4891B089580E408953B
S1132EA080E008951F920F920FB60F9211248F9312
S1132EB0EF93FF93E0916420F0E08091B008EA5929
S1132EC0FF4D8083809164208F5F80936420FF9105
S1132ED0EF918F910F900FBE0F901F901895209136
S1132EE0652030916420231709F457C0E22FF0E0E5
S1132EF0EA59FF4D30813D3041F436C0E22FF0E015
S1132F00EA59FF4D30813D3079F12F5F30916420D3
S1132F103213F4CF80E00895E0916520F0E0EA599F
S1132F20FF4D2081FC01E70FF11D208320916520D6
S1132F302F5F209365207F5F272F30E0241735070C
S1132F40C1F4E0916520F0E0EA59FF4D20812D3075
S1132F5081F0FC01E70FF11D1082809165208F5FE5
S1132F608093652080E0089570E0462F50E0415042
S1132F705109E0916520F0E0EA59FF4D20812D30A0
S1132F8059F6FC01E70FF11D1082809165208F5FD7
S1132F908093652081E0870F089580E0089584EB95
S1132FA08093B70887E38093B60880E38093B308DF
S1132FB083E08093B50888E18093B40808950F9363
S1132FC01F93CF93DF93CDB7DEB76597CDBFDEBF39
S1132FD08C0160E1CE0101960E946F17882309F4E9
S1132FE05DC18A3008F45CC1813108F05BC1FE0127
S1132FF0319620E030E0A0E070E0A9019191933295
S113300009F57F5F713019F4213081F04DC17230C0
S113301019F42430B9F04AC1733041F4263008F46D
S113302047C1293008F046C1A22F0CC0753051F4B5
S11330304A1B5109423051050CF43EC14730510539
S11330400CF03CC12F5F3F4F2817B8F2743009F0E1
S113305037C189818053F80180839C8190538B818F
S1133060880F8056282F220F220F820F890F818309
S11330708E81833209F036C125C181E001C082E02E
S11330808230D1F0833021F0813021F11DC18B8B4E
S11330909B89905389898053F4E68F9F900D112466
S11330A08A89880F8056282F220F220F820F890FBA
S11330B0F8018283A9E013C09A8990538989880F03
S11330C08056282F220F220F820F890FF801828346
S11330D0A8E005C089898053F8018283A7E0B0E0A5
S11330E0FE01EA0FFB1F8181833209F0F3C0EEC0B9
S11330F09D91933229F091938F5F8530C9F711C068
S1133100833009F485C038F4813009F4BFC08230BB
S113311009F4A3C0DDC0843009F446C0853009F049
S1133120D7C02D8930E020533109698970E060539C
S1133130710940E157E2649FC001659F900D749F3F
S1133140900D1124280F391F6A8970E060537109AA
S113315048EE53E0649FC001659F900D749F900DED
S11331601124280F391F4B8950E04053510964E65C
S1133170649FC001659F900D1124280F391F8C890D
S113318090E0C097AC01440F551F880F991F880F1A
S1133190991F880F991F840F951F820F931FF801A1
S11331A08383948380E0A9C02C8930E020533109C3
S11331B0698970E06053710948EE53E0649FC0016F
S11331C0659F900D749F900D1124280F391F4A8913
S11331D050E04053510964E6649FC001659F900D1F
S11331E01124280F391F8B8990E0C097AC01440F3C
S11331F0551F880F991F880F991F880F991F840FD7
S1133200951F820F931FF8018383948380E075C018
S11332102B8930E020533109498950E0405351094A
S113322064E6649FC001659F900D1124280F391F27
S11332308A8990E0C097AC01440F551F880F991FED
S1133240880F991F880F991F840F951F820F931F52
S1133250F8018383948380E050C02A8930E02053AE
S11332603109898990E0C097AC01440F551F880F3C
S1133270991F880F991F880F991F840F951F820F1C
S1133280931FF8018383948380E037C0898990E099
S1133290C097F8018383948380E02FC081E02DC020
S11332A082E02BC083E029C084E027C085E025C0EC
S11332B086E023C087E021C088E01FC089E01DC0EC
S11332C08AE01BC08BE019C08BE017C08CE015C0EE
S11332D08CE013C0898BAC0FBD1F1296FE01729651
S11332E081E006CF898B8F81833209F4C6CE8A8B25
S11332F08885833209F0CBCEC2CE6596CDBFDEBFC2
S1133300DF91CF911F910F910895FF920F931F9317
S1133310CF93DF93CDB7DEB76097CDBFDEBFFC019F
S11333208081805D898383E28A8391812DEC929FE1
S1133330212D112426952695269530E3320F3B83C3
S1133340220F322F330F330F230F921B905D9C8378
S11333508D8382818A3028F4805D8E83FF24F394E8
S113336041C08436B0F49DEC899F912D112496952B
S11333709695969520E3290F2E83990F292F220FD6
S1133380220F920F891B805D8F836894FF24F1F8CC
S113339029C099E2899F912D112492959F7020E371
S11333A0290F2E83282F34E6939F201911249DEC96
S11333B0299F212D1124269526952695205D2F835E
S11333C0899F912D1124969596959695990F292F5D
S11333D0220F220F920F891B805D88870F2EF3E046
S11333E0FF2EF02D0F2D10E0DE01A00FB11F83E2A0
S11333F016968C931697438154814A30510528F4CC
S1133400FD01405D478381E08DC14436510528F5B7
S1133410FE01E00FF11F9A01ADECBCEC0E949F1F6E
S113342096958795969587959695879520E3280F89
S11334302783FE01E00FF11F9C01220F331F880F29
S1133440991F880F991F880F991F820F931F481B7C
S1133450590B405D408782E065C1483E83E05807D0
S113346008F047C0FE01E00FF11F9A013695279539
S113347036952795ABE7B4E10E949F1F96958795F3
S113348020E3280F2783FE01E00FF11F64E6689F05
S11334909001699F300D1124CA01821B930B9C017A
S11334A0ADECBCEC0E949F1F9695879596958795E9
S11334B096958795805D8087FE01E00FF11F9A0144
S11334C00E949F1F969587959695879596958795C3
S11334D09C01220F331F880F991F880F991F880F93
S11334E0991F820F931F481B590B405D418783E04E
S11334F019C1403197E2590708F072C0FE01E00F8C
S1133500F11F9A0136952795369527953695279577
S1133510A5ECB0E20E949F1F929582958F70892737
S11335209F70892720E3280F2783FE01E00FF11FF6
S113353068EE73E0869F9001879F300D969F300D53
S11335401124CA01821B930B9C013695279536954D
S11335502795ABE7B4E10E949F1F96958795805D00
S11335608087FE01E00FF11F9A0136952795369565
S113357027950E949F1F9695879564E6689F900102
S1133580699F300D1124CA01821B930B9C01ADEC81
S1133590BCEC0E949F1F9695879596958795969566
S11335A08795805D8187FE01E00FF11F9A010E94DB
S11335B09F1F9695879596958795969587959C01D7
S11335C0220F331F880F991F880F991F880F991F87
S11335D0820F931F481B590B405D428784E0A2C0B1
S11335E0FE01E00FF11F9A01329522952F702327D7
S11335F03F702327A7E4B3E00E949F1F9695879509
S1133600969587959695879520E3280F2783FE0145
S1133610E00FF11F60E177E2869F9001879F300DF4
S1133620969F300D1124CA01821B930B9C01369581
S113363027953695279536952795A5ECB0E20E94F7
S11336409F1F929582958F7089279F708927805D2F
S11336508087FE01E00FF11F9A0136952795369574
S11336602795369527950E949F1F929582958F7076
S113367089279F70892768EE73E0869F9001879F52
S1133680300D969F300D1124CA01821B930B9C01AF
S11336903695279536952795ABE7B4E10E949F1F91
S11336A096958795805D8187FE01E00FF11F9A0151
S11336B036952795369527950E949F1F9695879551
S11336C064E6689F9001699F300D1124CA01821B32
S11336D0930B9C01ADECBCEC0E949F1F96958795C3
S11336E09695879596958795805D8287FE01E00F74
S11336F0F11F9A010E949F1F96958795969587952D
S1133700969587959C01220F331F880F991F880F68
S1133710991F880F991F820F931F481B590B405DF7
S1133720438785E0080F111DFE01E00FF11F93E2AE
S11337309783FE01E00FF11F9DE0908798E09F0DB5
S1133740F92EF80E0E943B178F15E0F36F2DCE0172
S113375001960E94ED166096CDBFDEBFDF91CF913A
S11337601F910F91FF9008952FB7F894E0EEF7E0C2
S113377090819260908395E19A95F1F700008823F7
S113378019F090819D7F9083EAE8EA95F1F700C0F3
S11337909091E80791FF80E0E7E5F1E03197F1F7D8
S11337A000C00000E0EEF7E090819D7F90832FBF82
S11337B0FAE6FA95F1F700C00895E4EEF7E08081A7
S11337C08D7F8083E0EEF7E08081826080838FE0EC
S11337D09FE00197F1F700C000009FB7F894808143
S11337E08D7F8083EFEFF1E03197F1F700C00000A7
S11337F08091E8079FBFEFE0FDE03197F1F700C04B
S113380000009091E80791FF02C08270089581E062
S11338100895CF93DF93C82FD8E08C2F81700E9436
S1133820B41BC6958111C068D150B9F78C2FDF91B4
S1133830CF9108958FEF0E94091C0895DF92EF92B3
S1133840FF920F931F93CF93DF93E82EEB010E9417
S1133850DD1B811127C080EF0E94091CD12C10E4CC
S11338600F2EF8EFFF2EF02DF10E81E00E94B41B15
S1133870082F81E00E94B41B882319F00023C1F0B3
S113388013C0011121C01E15D0F0988190FF10C003
S1133890E11218C00DC011501F11E7CF219611116C
S11338A0DFCF04C08FEF18C08EEF16C08D2D14C06B
S11338B0802F0E94B41B988196959883ECCFD12ECB
S11338C001E002C0D12E01E0802F0E94B41B988138
S11338D0969590689883DFCFDF91CF911F910F91D8
S11338E0FF90EF90DF900895CF93DF931F92CDB7B1
S11338F0DEB71092010282E08093020283E080939B
S1133900040281E080932002809300028FEF898378
S11339108981882309F16091A8216830E8F48981BC
S113392070E0660F771F660F771F660F771F60546E
S11339307E4D0E941E1C898389818F3F69F0898195
S11339408E3F51F06091A8216F5F6093A821898117
S1133950882311F0683018F38091A821882341F05E
S11339600E94DD1B8CEC0E94091C84E40E94091C4B
S11339700F90DF91CF910895BF92CF92DF92EF9293
S1133980FF920F931F93CF93DF93C82E8091A821AA
S1133990882309F44BC081E00E94B41B882309F4F6
S11339A045C08091A8218823C9F1D12C0F2EF7ECB2
S11339B0BF2EF02DED2CF12CE701CC0FDD1FCC0F29
S11339C0DD1FCC0FDD1FC054DE4D0E94DD1B209790
S11339D069F085E50E94091C8E01085F1F4F8991DB
S11339E00E94091CC017D107D1F703C08CEC0E94B8
S11339F0091C8EEB0E94091C0E941A1C883C28F4A6
S1133A00F701E050F04E808304C0F701E050F04E1F
S1133A10B082D3948091A821D81660F20E94DD1B55
S1133A208CEC0E94091C84E40E94091C87E08C151C
S1133A3020F1CC0CCC0CCC0CC0922102E0E2F2E0E0
S1133A40808180688083E3E2F2E080818823E9F367
S1133A5081E080932302E0912402F0912502EF3F5C
S1133A608FE0F807C9F0F695E795F695E795F69592
S1133A70E795EC5BFB4F849112C08C2D90E0209174
S1133A80A82130E0285F3F4F821793073CF4FC01E4
S1133A90E850F04E808103C08CED01C08CEDDF91C5
S1133AA0CF911F910F91FF90EF90DF90CF90BF9037
S1133AB008958091A8210895E82FF0E0E054FE4D88
S1133AC08081089535EF3093010A8FE391E080936C
S1133AD0260A9093270A22E02093000A30930109D2
S1133AE080932609909327092093000989E5809300
S1133AF080018DE6809381018EE6809382018FE6BA
S1133B008093830188E28093030880EF8093010807
S1133B108FEF9FEF809326089093270886E0809389
S1133B20000883E0809306088AEA809307081092CD
S1133B30410884E39CE0809366089093670881E0E1
S1133B408093460887E08093400808951F920F925F
S1133B500FB60F9211242F933F934F935F938F933C
S1133B609F93809128089091290820911220223057
S1133B7058F42091BC213091BD21AC01421B530B60
S1133B804093BE215093BF218093BC219093BD21CB
S1133B9080911220882329F08091122081508093F3
S1133BA012209F918F915F914F913F912F910F9090
S1133BB00FBE0F901F9018951F920F920FB60F9281
S1133BC011242F933F934F935F938F939F93EF937E
S1133BD0FF9380912A0890912B0820910E20223087
S1133BE058F42091AB213091AC21AC01421B530B12
S1133BF04093B3215093B4218093AB219093AC2193
S1133C0080910E20882329F0EEE0F0E2808181503B
S1133C108083FF91EF919F918F915F914F913F919D
S1133C202F910F900FBE0F901F9018951F920F9217
S1133C300FB60F9211242F933F934F935F938F935B
S1133C409F93EF93FF9380912C0890912D082091DE
S1133C500F20223058F42091AD213091AE21AC01D7
S1133C60421B530B4093B5215093B6218093AD2151
S1133C709093AE2180910F20882329F0EFE0F0E2A9
S1133C80808181508083FF91EF919F918F915F910B
S1133C904F913F912F910F900FBE0F901F90189549
S1133CA01F920F920FB60F9211242F933F934F93AD
S1133CB05F938F939F93EF93FF9380912E0890913E
S1133CC02F0820911020223058F42091AF213091F8
S1133CD0B021AC01421B530B4093B7215093B82140
S1133CE08093AF219093B02180911020882329F0F4
S1133CF0E0E1F0E2808181508083FF91EF919F9118
S1133D008F915F914F913F912F910F900FBE0F9024
S1133D101F9018951F920F920FB60F9211242F9394
S1133D203F938F939F93AF93BF93EF93FF938091B0
S1133D3012208093BB2182E08093122080E090E0E7
S1133D4032E0FC01E25FFF4D2081DC01A65FBF4D44
S1133D502C93308301968430910599F781E0809308
S1133D60AA21FF91EF91BF91AF919F918F913F91C4
S1133D702F910F900FBE0F901F9018951F920F92C6
S1133D800FB60F9211248F9381E08093A9218F9114
S1133D900F900FBE0F901F901895E82F6536E0F531
S1133DA04FE351E0649FC001659F900D112464E6C8
S1133DB070E00E94631F8E2F90E08830910560F5BB
S1133DC0FC01EA59FE4F0C94991F60933A0A7093D0
S1133DD03B0A089560933C0A70933D0A08956093EA
S1133DE03E0A70933F0A089560933E0970933F0919
S1133DF0089560933C0970933D09089560933A09CE
S1133E0070933B09089560933809709339090895B4
S1133E106093380A7093390A089590E0FC01E65FD4
S1133E20FF4D2081211118C0FC01EE0FFF1FED543E
S1133E30FE4D20813181C901A0E0B0E09C01AD01BB
S1133E40220F331F441F551F60EE70E782E790E096
S1133E500E94771FC901089580E090E00895809141
S1133E60BB21811114C0A091BE21B091BF2120912A
S1133E700820309109200E949F1F9B01AC0160E83B
S1133E8074E782ED9AE10E94771FC901089580E0EA
S1133E9090E00895809308209093092008958091DC
S1133EA0AA21882321F01092AA2181E0089580E0BC
S1133EB008958091A921882321F01092A92181E0FD
S1133EC0089580E0089597FB072E16F4009407D018
S1133ED077FD09D00E94AE1F07FC05D03EF49095F3
S1133EE081959F4F0895709561957F4F0895A1E244
S1133EF01A2EAA1BBB1BFD010DC0AA1FBB1FEE1F60
S1133F00FF1FA217B307E407F50720F0A21BB30BAA
S1133F10E40BF50B661F771F881F991F1A9469F726
S1133F2060957095809590959B01AC01BD01CF0182
S1133F300895EE0FFF1F0590F491E02D0994A29FC0
S1133F40B001B39FC001A39F700D811D1124911D69
S1133F50B29F700D811D1124911D0895AA1BBB1BD6
S1133F6051E107C0AA1FBB1FA617B70710F0A61B75
S1133F70B70B881F991F5A95A9F780959095BC0196
S1133F80CD010895BB274A3031F4992322F4BDE2D0
S1133F90909581959F4F0C94CE1FBB27FB0155270D
S1133FA0AA27880F991FAA1FA41710F0A41B839592
S1133FB05051B9F7A05DAA3308F0A95DA193009709
S1133FC079F7B111B1931192CB010C944A20E0EC32
S1133FD0F1E0A785A7FDFDCFA485A860A487605064
S1133FE0704F0C9441200E94352080819181089566
S1133FF0262F0E9435200080021619F00E940A2004
S11340000197019708950196272F0E94F91F0C9498
S1134010F81F262FE0ECF1E0378537FDFDCF34851E
S1134020377F3487378531FF09C036E3328738ED6F
S113403034BF31E03387378537FDFDCF33E3328733
S1134040808391831282248325E3228728ED31E043
S113405024BF3387019608950E940920272F0C94CA
S11340600A2003D0808199270895E0ECF1E0378598
S113407037FDFDCF348538603487FC01E050F04FC4
S11340800895FB01DC0102C001900D9241505040A3
S1134090D8F70895DC01FC01672F71917723E1F7CC
S11340A0329704C07C916D9370836291AE17BF0701
S10B40B0C8F30895F894FFCF52
S11340B82828282828282828A900020202020202FF
S11340C802020220202020436F6E464C694354208C
S11340D820202020202020202020202020202020D4
S11340E820202046573A2043302E352048573A207E
S11340F8322E310062757A7A65722064697361625E
S11341086C65640062757A7A657220656E61626CAA
S107411865640000D6
S9030000FC
